:020000040001F9
:10000000025D2E7D147F0A12603F22025847AF84A2
:1000100075840F758C67E58C30E7FB7597018F84CD
:0100200022BD
:0700230002557975FF072269
:10002B00026EE2900A71120C49900A71120C29129D
:10003B0006C9FFEF04FFEF75F06484AFF0900A710F
:10004B00120C29EF120742900A71120C29900064CE
:10005B00E4F0A37401F07F027E20124D3F900A74EE
:0F006B00EFF0900A74E0FF220273B175FFA52237
:10007B00024C379009DD120C499009DD120C29AEA8
:10008B0002AF01EF4E70037F0222126F919009E0D5
:10009B00EFF09009E2E4F09009E2E0FF7E00C3EF9D
:1000AB009414EE6480948050489009E2E0FF90092C
:1000BB00E0E0FEC3EE9FFFEF2463FFEF75F0648477
:1000CB00AFF09009E1EFF09009E2E0FF7E0CEF8ECC
:1000DB00F0A4FFAEF09009DD120C29E92FF9EA3EEE
:1000EB00FA9009E1E0FF125E469009E2E004F0802D
:0400FB00A67F0822B2
:10010000C0087401C0E0C082C08375080A75B100E0
:1001100022C0087401C0E0C082C08375081B75B19D
:100120001122C0087401C0E0C082C08375082C751C
:10013000B12222C0087401C0E0C082C08375083DAE
:1001400075B1332290F83F211190E99F211190F66B
:10015000F0211190CA95212290CFB6212290945D72
:10016000212290B5A2212290EBBC212290E0C62151
:100170002290F5F7212290F6C6212290F1972122B4
:1001800090F51B2122908000212290C7E02122902F
:10019000AA5E212290B06E212290EE89212290E861
:1001A00097213390EBB9213390EBC6213390DE21B8
:1001B000213390E4D3213390E624213390E360216E
:1001C0003390E775213390E171213390E96A21334F
:1001D00090EA13213390E6CE21220002059CE864C8
:1001E00080F8E933E83360110460F0ED33EC3370EC
:1001F00009E8FCE9FDEAFEEBFF220460DED3EB9F99
:10020000EA9EE99DE8C2E78CF0C2F795F0400CE861
:10021000CCF8E9CDF9EACEFAEBCFFB12056785D031
:10022000F05804700320D5B3E80470075002B2D52B
:100230000205A692D5EC0460F7E4CCC0E0C398F8C0
:10024000603B94186008400DD0E0FB02057EE4FBA3
:10025000FAC9FC8028E830E406E4C9FBE4CAFCE8FB
:1002600030E305E4C9CACBFCE854076010F8C3E9E1
:1002700013F9EA13FAEB13FBEC13FCD8F130F52F6A
:10028000C3E49CFCEF9BFFEE9AFEED99FDD0E0FBF2
:10029000EF4E4D4C701222DB030205A3EC2CFCEF59
:1002A00033FFEE33FEED33FDED30E7EB02057EEF7D
:1002B0002BFFEE3AFEED39FDD0E0FB50130BBB00F7
:1002C000030205A6ED13FDEE13FEEF13FFEC13FC86
:1002D00002057EEC4D6011E8497017ED33EC3304F4
:1002E000600DE4FCFFFEFD22E933E8330470F80200
:1002F000059C12056758046009E4CC248150062847
:1003000050090205A62840030205A3C0E0EB4A708D
:1003100044B98006D0E0FB020592EF4E701CBD8010
:1003200008EBFFEAFEE9FD80EBE98DF0A4FEE5F0C5
:100330000203BCE9CDF9EAFEEBFFEF89F0A4FCE58E
:10034000F0CE89F0A42EFFE435F0CD89F0A42DFE87
:10035000E435F08067EF4E7005BD80D780C3EF8B2A
:10036000F0A4ACF0EE8BF0A42CFCE435F0F8EF8AAE
:10037000F0A42CE5F038FCE433CB8DF0A42CFCE5A4
:10038000F03BF8EE8AF0A42CFCE5F038F8E433CF2B
:1003900089F0A42CFCE5F038CF3400CE89F0A42FEE
:1003A000FFE5F03EFEE433C98DF0A42EFEE5F03902
:1003B000CD8AF0A42FFFE5F03EFEE43DFD33D0E012
:1003C000FB50070BBB000F0205A6EC2CFCEF33FF24
:1003D000EE33FEED33FD02057E0205A6EC5D046002
:1003E00005E85904700302059C120567580460F67D
:1003F000EC4860F2EC7004FDFEFF22C860DB248153
:10040000C85009C398600250060205A39850CAF567
:1004100082E9294B4A7005AB8202059275F0007C97
:100420001A7880C3EF9BEE9AED99400DC3EF9BFFC6
:10043000EE9AFEED99FDE842F0DC23ACF0D0E0FF4F
:10044000D0E0FED0E0FDAB8220E7101BEB60BAEC01
:100450002CFCEF33FFEE33FEED33FD02057EE803A7
:10046000F830E705C0F075F000EF2FFFEE33FEED3A
:1004700033FD40B830E7C280AA74F8CC6480CCC8A1
:100480006480C8F58204604FC3EB9FF5F0EA9E429A
:10049000F0E99D42F0E89C45F0603C501DE5825F2C
:1004A000FFE582D313CB5BCBF42B5582FB50280A9C
:1004B000BA002409B9002008801DE5825BFBE582B3
:1004C000D313CF5FCFF4C3132F5582FF50090EBE55
:1004D00000050DBD00010CC3EB9FF5F0EA9E42F054
:1004E000E99D42F0E89C45F06007CC4820E701B365
:1004F000EC2275F020800E75F010800575F0087DF7
:10050000007E007F003392D530D503120A80EC3391
:100510004010EF33FFEE33FEED33FDEC33FCD5F04E
:10052000ED22E5F0247EA2D513CC92E7CDCEFF22BA
:10053000EDD2E7CD33EC3392D524814006E4FFFEC3
:10054000FDFC22FCE4CFCECDCC24E0501174FF8022
:10055000EDC3CC13CCCD13CDCE13CECF13CF0470BF
:10056000F030D5DE020A80E9D2E7C933E833F892E9
:10057000D5EDD2E7CD33EC33FC5002B2D522EC30CE
:10058000E7100FBF000C0EBE00080DBD00040BEB02
:100590006014A2D5EB13FCED92E7FD2274FFFCFD85
:1005A000FEFF22E480F8A2D574FF13FC7D80E48076
:1005B000EFE709F608DFFA8046E709F208DFFA807C
:1005C0003E88828C83E709F0A3DFFA8032E309F6E4
:1005D00008DFFA8078E309F208DFFA807088828CFD
:1005E00083E309F0A3DFFA806489828A83E0A3F6BB
:1005F00008DFFA805889828A83E0A3F208DFFA8054
:100600004C80D280FA80C680D4806980F2803380AA
:100610001080A680EA809A80A880DA80E280CA8072
:100620003389828A83ECFAE493A3C8C582C8CCC517
:1006300083CCF0A3C8C582C8CCC583CCDFE9DEE794
:10064000800D89828A83E493A3F608DFF9ECFAA986
:10065000F0EDFB2289828A83ECFAE0A3C8C582C848
:10066000CCC583CCF0A3C8C582C8CCC583CCDFEA97
:10067000DEE880DB89828A83E493A3F208DFF980D5
:10068000CC88F0EF60010E4E60C388F0ED2402B418
:10069000040050B9F582EB2402B4040050AF2323C8
:1006A00045822390060173C2D530F707B2D563F0B7
:1006B000FF05F030E70CB2D5F4048463F0FF05F0D9
:1006C00080018430D502F40422BB010689828A832A
:1006D000E0225002E722BBFE02E32289828A83E401
:1006E0009322BB010CE58229F582E5833AF583E08C
:1006F000225006E92582F8E622BBFE06E92582F8AB
:10070000E222E58229F582E5833AF583E49322BB70
:10071000010FF8E58229F582E5833AF583E028F0B8
:10072000225009C58229F8E58226F622BBFE09C5BA
:100730008229F8E22582F222F8EA2583F583E993FB
:100740002822BB010689828A83F0225002F722BB4D
:10075000FE01F322F8BB010DE58229F582E5833A1B
:10076000F583E8F0225006E92582C8F622BBFE0593
:10077000E92582C8F222EF8DF0A4A8F0CF8CF0A476
:1007800028CE8DF0A42EFE22BC000BBE0029EF8DDA
:10079000F084FFADF022E4CCF875F008EF2FFFEE07
:1007A00033FEEC33FCEE9DEC984005FCEE9DFE0F15
:1007B000D5F0E9E4CEFD22EDF8F5F0EE8420D21C70
:1007C000FEADF075F008EF2FFFED33FD40079850B8
:1007D00006D5F0F222C398FD0FD5F0EA22C2D5EC7F
:1007E00030E709B2D5E4C39DFDE49CFCEE30E7158B
:1007F000B2D5E4C39FFFE49EFE120788C3E49DFDCB
:10080000E49CFC800312078830D507C3E49FFFE413
:100810009EFE22C5F0F8A3E028F0C5F0F8E58215A9
:100820008270021583E038F022A3F8E0C5F025F0CD
:10083000F0E582158270021583E0C838F0E822BB2B
:10084000010A89828A83E0F5F0A3E022500687F04E
:1008500009E71922BBFE07E3F5F009E319228982B3
:100860008A83E493F5F074019322BB0110E5822999
:10087000F582E5833AF583E0F5F0A3E0225009E93B
:100880002582F886F008E622BBFE0AE92582F8E216
:10089000F5F008E222E5832AF583E993F5F0A3E970
:1008A0009322BB010DC58229C582C5833AC5830247
:1008B00008135011C58229F808E5F026F618F5F05E
:1008C000E58236F622BBFE11C58229F808E225F042
:1008D000F5F0F218E23582F222F8E58229F582E598
:1008E000832AF58374019325F0F5F0E4933822BB55
:1008F000010A89828A83F0E5F0A3F0225006F70905
:10090000A7F01922BBFE06F3E5F009F31922F8BBA4
:100910000111E58229F582E5833AF583E8F0E5F0F7
:10092000A3F0225009E92582C8F608A6F022BBFEF2
:1009300009E92582C8F2E5F008F222EF2BFFEE3A32
:10094000FEED39FDEC38FC22C3EF9BFFEE9AFEED85
:1009500099FDEC98FC22E88FF0A4CC8BF0A42CFC41
:10096000E98EF0A42CFC8AF0EDA42CFCEA8EF0A415
:10097000CDA8F08BF0A42DCC3825F0FDE98FF0A4A4
:100980002CCD35F0FCEB8EF0A4FEA9F0EB8FF0A49B
:10099000CFC5F02ECD39FEE43CFCEAA42DCE35F0D7
:1009A000FDE43CFC2275F008758200EF2FFFEE336A
:1009B000FECD33CDCC33CCC58233C5829BED9AECD2
:1009C00099E58298400CF582EE9BFEED9AFDEC993C
:1009D000FC0FD5F0D6E4CEFBE4CDFAE4CCF9A88246
:1009E00022B800C1B90059BA002DEC8BF084CFCEEB
:1009F000CDFCE5F0CBF97818EF2FFFEE33FEED33A9
:100A0000FDEC33FCEB33FB10D703994004EB99FB6F
:100A10000FD8E5E4F9FA227818EF2FFFEE33FEED58
:100A200033FDEC33FCC933C910D7059BE99A400765
:100A3000EC9BFCE99AF90FD8E0E4C9FAE4CCFB227C
:100A400075F010EF2FFFEE33FEED33FDCC33CCC845
:100A500033C810D7079BEC9AE899400AED9BFDEC50
:100A60009AFCE899F80FD5F0DAE4CDFBE4CCFAE48F
:100A7000C8F922EF4BFFEE4AFEED49FDEC48FC229F
:100A8000C3E49FFFE49EFEE49DFDE49CFC22EB9FFB
:100A9000F5F0EA9E42F0E99D42F0EC6480C8648083
:100AA0009845F022EB9FF5F0EA9E42F0E99D42F076
:100AB000E89C45F022E8600FECC313FCED13FDEE5B
:100AC00013FEEF13FFD8F122E8600FEFC333FFEE00
:100AD00033FEED33FDEC33FCD8F122BB01078982F4
:100AE0008A83020B455005E9F8020EADBBFE05E90D
:100AF000F8020EB989828A83020B51BB010DE5828F
:100B000029F582E5833AF583020B455007E92582F2
:100B1000F8020EADBBFE07E92582F8020EB9E582A8
:100B200029F582E5833AF583020B51BB01078982DF
:100B30008A83020BA25005E9F8020EC5BBFE05E947
:100B4000F8020ED122E0FCA3E0FDA3E0FEA3E0FF4B
:100B500022E493FC740193FD740293FE740393FFEB
:100B600022E0F8A3E0F9A3E0FAA3E0FB227401FF7E
:100B70003395E0FEFDFCA3A3A3E0CF2FF0E58215A3
:100B80008270021583E0CE3EF0E582158270021578
:100B900083E0CD3DF0E582158270021583E0CC3C08
:100BA000F022ECF0A3EDF0A3EEF0A3EFF022A88288
:100BB0008583F0D083D082120BC5120BC5120BC5F2
:100BC000120BC5E473E493A3C583C5F0C583C8C500
:100BD00082C8F0A3C583C5F0C583C8C582C822BB3F
:100BE000010789828A83020BAE5005E9F8020EDD07
:100BF000BBFE05E9F8020EF622BB010DE58229F5E0
:100C000082E5833AF583020BAE5007E92582F802AC
:100C10000EDDBBFE07E92582F8020EF622A425822E
:100C2000F582E5F03583F58322E0FBA3E0FAA3E04B
:100C3000F922F8E0FBA3A3E0F925F0F0E5821582A4
:100C400070021583E0FA38F022EBF0A3EAF0A3E992
:100C5000F022E493FB740193FA740293F922BB012E
:100C60000789828A83020C295005E9F8020F0FBB1D
:100C7000FE05E9F8020F1889828A83020C52D0839C
:100C8000D082F8E4937012740193700DA3A393F8CB
:100C9000740193F5828883E4737402936860EFA310
:100CA000A3A380DF8A838982E473EC8EF0A4CCC591
:100CB000F0CCCDF8EFA4CEC5F02DFDE43CFCE8A4CB
:100CC0002EC8C5F03DFDE43CFCEFA4FFE5F028FE96
:100CD000E43DFDE43CFC22E3F5F009E208B5F06BED
:100CE000DFF58067E3F5F009E608B5F05EDFF58033
:100CF0005A87F009E608B5F052DFF6804E87F00912
:100D0000E208B5F046DFF6804288828C8387F009DE
:100D1000E0A3B5F036DFF6803288828C8387F00955
:100D2000E493A3B5F025DFF5802188828C83E3F579
:100D3000F009E0A3B5F014DFF5801088828C83E31E
:100D4000F5F009E493A3B5F002DFF4020E06808704
:100D500080E9809080D4803E8015806E807E809D6A
:100D600080B7808D80A380518074803C020E1289F0
:100D7000828A83ECFAE493F5F0A3C8C582C8CCC597
:100D800083CCE493A3C8C582C8CCC583CCB5F07628
:100D9000DFE3DEE1807089828A83E493F5F0A3E2E9
:100DA00008B5F062DFF4805E89828A83E0F5F0A303
:100DB000E608B5F051DFF5804D89828A83E0F5F0D1
:100DC000A3E208B5F040DFF5803C89828A83E49392
:100DD000F5F0A3E608B5F02EDFF4802A80028057F4
:100DE00089828A83ECFAE493F5F0A3C8C582C8CC63
:100DF000C583CCE0A3C8C582C8CCC583CCB5F006FA
:100E0000DFE4DEE280007FFFB5F0020F2240027FC8
:100E1000012289828A83ECFAE0F5F0A3C8C582C872
:100E2000CCC583CCE0A3C8C582C8CCC583CCB5F003
:100E3000D5DFE5DEE380CF89828A83ECFAE0F5F046
:100E4000A3C8C582C8CCC583CCE493A3C8C582C857
:100E5000CCC583CCB5F0AFDFE4DEE280A988F0EF4B
:100E600060010E4E60ABED2402B404005098F58290
:100E7000EB2402B40400508E2323458223900D4EB0
:100E800073EF4E6012EF60010EEDBB010B89828A99
:100E900083F0A3DFFCDEFA2289F05007F709DFFCBC
:100EA000A9F022BBFEFCF309DFFCA9F022E6FC0856
:100EB000E6FD08E6FE08E6FF22E2FC08E2FD08E2A5
:100EC000FE08E2FF22ECF608EDF608EEF608EFF673
:100ED00022ECF208EDF208EEF208EFF222D083D015
:100EE00082E493F608740193F608740293F608748A
:100EF0000393F6740473D083D082E493F2087401F0
:100F000093F208740293F208740393F2740473E684
:100F1000FB08E6FA08E6F922E2FB08E2FA08E2F941
:100F200022E4900033F09007ABE0D39402748094F5
:100F30008040089000317403F08006900031740204
:100F4000F0900033E0FEC006E4FF127130D0E04FB5
:100F5000900033F09000307401F0900031E0FE908A
:100F60000030E0FFC39E40030214F9E4900032F029
:100F7000A3E0FEC006C007900058120BAE000000B0
:100F80005AD0077DC61248E4D0E04F900033F0E01D
:100F9000FEC006900030E0FF7B017A0079047D24DA
:100FA000125C07D0E04F900033F0900004120B4524
:100FB0007808120AB5900032E0FE04F074082EF5AD
:100FC00082E43400F583EFF0900004120B459000AA
:100FD00032E0FE04F074082EF582E43400F583EF6D
:100FE000F0900033E0FEC006900030E0FF7B017A15
:100FF0000079047D25125C07D0E04F900033F0901B
:101000000004120B457808120AB5900032E0FE0485
:10101000F074082EF582E43400F583EFF0900004BC
:10102000120B45900032E0FE04F074082EF582E4C5
:101030003400F583EFF0900033E0FEC006900030FE
:10104000E0FF7B017A0079047D26125C07D0E04F37
:10105000900033F0900004120B457808120AB59006
:101060000032E0FE04F074082EF582E43400F583CB
:10107000EFF0900004120B45900032E0FE04F07493
:10108000082EF582E43400F583EFF0900033E0FEA3
:10109000C006900030E0FF7B017A0079047D2712C2
:1010A0005C07D0E04F900033F0900004120B4578BD
:1010B00008120AB5900032E0FE04F074082EF582A2
:1010C000E43400F583EFF0900004120B45900032F9
:1010D000E0FE04F074082EF582E43400F583EFF0AE
:1010E000900033E0FEC006900030E0FF7B017A0004
:1010F00079047D28125C07D0E04F900033F0900017
:1011000004120B457808120AB5900032E0FE04F094
:1011100074082EF582E43400F583EFF09000041299
:101120000B45900032E0FE04F074082EF582E434A2
:1011300000F583EFF0900033E0FEC006900030E051
:10114000FF7B017A0079047D29125C07D0E04F9083
:101150000033F0900004120B457808120AB5900095
:1011600032E0FE04F074082EF582E43400F583EFDB
:10117000F0900004120B45900032E0FE04F0740879
:101180002EF582E43400F583EFF0900033E0FEC0EA
:1011900006900030E0FF7B017A0079047D17125C35
:1011A00007D0E04F900033F0900004120B45780810
:1011B000120AB5900032E0FE04F074082EF582E4C5
:1011C0003400F583EFF0900004120B45900032E0FC
:1011D000FE04F074082EF582E43400F583EFF090FD
:1011E0000033E0FEC006900030E0FF7B017A00791A
:1011F000047D18125C07D0E04F900033F09000049B
:10120000120B457808120AB5900032E0FE04F07423
:10121000082EF582E43400F583EFF0900004120B01
:1012200045900032E0FE04F074082EF582E43400AC
:10123000F583EFF0900033E0FEC006900030E0FF51
:101240007B017A0079047D19125C07D0E04F900091
:1012500033F0900004120B457808120AB590003262
:10126000E0FE04F074082EF582E43400F583EFF01C
:10127000900004120B45900032E0FE04F074082E3A
:10128000F582E43400F583EFF0900033E0FEC00611
:10129000900030E0FF7B017A0079047D1A125C0730
:1012A000D0E04F900033F0900004120B4578081204
:1012B0000AB5900032E0FE04F074082EF582E434A2
:1012C00000F583EFF0900004120B45900032E0FE31
:1012D00004F074082EF582E43400F583EFF09000FA
:1012E00033E0FEC006900030E0FF7B017A00790415
:1012F0007D1B125C07D0E04F900033F09000041289
:101300000B457808120AB5900032E0FE04F074082C
:101310002EF582E43400F583EFF0900004120B45C3
:10132000900032E0FE04F074082EF582E43400F5FB
:1013300083EFF0900033E0FEC006900030E0FF7BCA
:10134000017A0079047D1C125C07D0E04F900033D5
:10135000F0900004120B457808120AB5900032E0B4
:10136000FE04F074082EF582E43400F583EFF0906B
:101370000004120B45900032E0FE04F074082EF5D4
:1013800082E43400F583EFF0900033E0FEC0069075
:101390000030E0FF7B017A0079047D3E125C07D0CB
:1013A000E04F900033F0900004120B457810120AC1
:1013B000B5900032E0FE04F074082EF582E43400AB
:1013C000F583EFF0900004120B457808120AB590EF
:1013D0000032E0FE04F074082EF582E43400F58358
:1013E000EFF0900004120B45900032E0FE04F07420
:1013F000082EF582E43400F583EFF0900033E0FE30
:10140000C006900030E0FF7B017A0079047D5E1217
:101410005C07D0E04F900033F0900004120B457849
:1014200010120AB5900032E0FE04F074082EF58226
:10143000E43400F583EFF0900004120B45780812B5
:101440000AB5900032E0FE04F074082EF582E43410
:1014500000F583EFF0900004120B45900032E0FE9F
:1014600004F074082EF582E43400F583EFF07B017C
:101470007A0079087D1E7C0012017B900032E0FE2C
:1014800004F074082EF582E43400F583E4F07B0167
:101490007A0079087D1EFC12017B900032E0FE0488
:1014A000F074082EF582E43400F583EFF0900033F9
:1014B000E0FEC006900047120BAE00000001900055
:1014C00030E0FF7DC6125C9DD0E04F900033F0907D
:1014D0000030E0FF7B017A00790890089CE4F0A3DB
:1014E000741FF0123C0EEF6007900033E04401F0EF
:1014F000900030E004F0020F5AE4900032F0A3E0D4
:10150000FEC0067B017A0079047D087F04125C0727
:10151000D0E04F900033F0900004120B45E4120429
:10152000F2A804A905AA06AB07E4FFFE7DC87C4229
:101530001203DC900034120BA2900034E0FF900004
:1015400032E0FE04F074082EF582E43400F583EFF7
:10155000F0900035E0FF900032E0FE04F074082EB9
:10156000F582E43400F583EFF0900036E0FF900060
:1015700032E0FE04F074082EF582E43400F583EFC7
:10158000F0900037E0FF900032E0FE04F074082E87
:10159000F582E43400F583EFF0900033E0FEC006FE
:1015A0007B017A0079047D067F04125C07D0E04F4E
:1015B000900033F0900004120B45E41204F2A804EA
:1015C000A905AA06AB07E4FFFE7DA07C401203DC60
:1015D000900034120BA2900034E0FF900032E0FE45
:1015E00004F074082EF582E43400F583EFF09000E7
:1015F00035E0FF900032E0FE04F074082EF582E43E
:101600003400F583EFF0900036E0FF900032E0FE0A
:1016100004F074082EF582E43400F583EFF09000B6
:1016200037E0FF900032E0FE04F074082EF582E40B
:101630003400F583EFF0900033E0FEC0067B017AC2
:101640000079047D0A7F04125C07D0E04F900033DC
:10165000F0900004120B45E41204F2A804A905AAB4
:1016600006AB07E4FFFE7DFA7C431203DC900034F6
:10167000120BA2900034E0FF900032E0FE04F07400
:10168000082EF582E43400F583EFF0900035E0FF9A
:10169000900032E0FE04F074082EF582E43400F588
:1016A00083EFF0900036E0FF900032E0FE04F0742B
:1016B000082EF582E43400F583EFF0900037E0FF68
:1016C000900032E0FE04F074082EF582E43400F558
:1016D00083EFF0900033E0FEC0067B017A007904CE
:1016E0007D187F04125C07D0E04F900033F090002B
:1016F00004120B457810120AB5900032E0FE04F097
:1017000074082EF582E43400F583EFF090000412A3
:101710000B457808120AB5900032E0FE04F0740818
:101720002EF582E43400F583EFF0900004120B45AF
:10173000900032E0FE04F074082EF582E43400F5E7
:1017400083EFF07B017A00790890089CE4F0A374A1
:1017500010F07F04123C0EEF6007900033E044016C
:10176000F09005D0E0900008F09005D1E0900009DD
:10177000F09005D2E090000AF0900033E0FEC00641
:101780007B017A007908900064E4F0A37403F0E42C
:10179000FFFE124D3FD0E04F900033F0E0FEC00658
:1017A0007F01127130D0E04FFF900033F0229000A3
:1017B00006EFF0E490002FF07A00794178417C0048
:1017C0007D017BFF7A7E7906FE7F04120681900000
:1017D00006E0FFC394037480948050089000407426
:1017E0001FF080069000407410F090002FE0FEC0C3
:1017F00006900040E0FD900826E4F0A3EDF07B01A8
:101800007A007930A3120C497A00793490082B12AF
:101810000C497A00790712244FD0E04F90002FF046
:10182000900006E0FFC39403748094804003021C80
:101830002090002FE0FEC006C007900047120BAEBC
:101840000000005AD0077DC9125C9DD0E04F900087
:101850002FF0E0FEC006900047120BAE0000A87EFD
:10186000900006E0FF7D01125C9DD0E04F90002FBC
:10187000F0E0FEC006900047120BAE0000000090A2
:101880000006E0FF7D70125C9DD0E04F90002FF0CD
:10189000E0FEC006900047120BAE00000904900065
:1018A00006E0FF7D03125C9DD0E04F90002FF0E03A
:1018B000FEC006900047120BAE0000000390000629
:1018C000E0FF7D30125C9DD0E04F90002FF0E0FEF5
:1018D000C006900047120BAE00003C27900006E0C7
:1018E000FF7D31125C9DD0E04F90002FF0E0FEC0F4
:1018F00006900047120BAE00000000900006E0FFCB
:101900007D02125C9DD0E04F90002FF0E0FEC006FB
:10191000900047120BAE0000002C900006E0FF7D07
:101920001E125C9DD0E04F90002FF0E0FEC00690AC
:101930000047120BAE0000FF00900006E0FF7D6D37
:10194000125C9DD0E04F90002FF0E0FEC0069000AA
:1019500047120BAE00000DB8900006E0FF7D6E123E
:101960005C9DD0E04F90002FF0E0FEC00690004755
:10197000120BAE0000D1DA900006E0FF7D6F125C22
:101980009DD0E04F90002FF0E0FEC006900007E0F1
:10199000FEA3E0FDEEEDFFE4FCFD900058120BA26B
:1019A000900006E0FF7D241248E4D0E04F90002F25
:1019B000F0E0FEC006900009E0FEA3E0FDEEEDFFC2
:1019C000E4FCFD900058120BA2900006E0FF7D257C
:1019D0001248E4D0E04F90002FF0E0FEC0069000E7
:1019E0000BE0FEA3E0FDEEEDFFE4FCFD90005812DD
:1019F0000BA2900006E0FF7D261248E4D0E04F9055
:101A0000002FF0E0FEC00690000DE0FEA3E0FDEE2A
:101A1000EDFFE4FCFD900058120BA2900006E0FFE1
:101A20007D271248E4D0E04F90002FF0E0FEC00682
:101A300090000FE0FEA3E0FDEEEDFFE4FCFD900062
:101A400058120BA2900006E0FF7D281248E4D0E077
:101A50004F90002FF0E0FEC006900011E0FEA3E0E2
:101A6000FDEEEDFFE4FCFD900058120BA290000685
:101A7000E0FF7D291248E4D0E04F90002FF0E0FE17
:101A8000C006900013E0FEA3E0FDEEEDFFE4FCFDD8
:101A9000900058120BA2900006E0FF7D171248E458
:101AA000D0E04F90002FF0E0FEC006900015E0FE61
:101AB000A3E0FDEEEDFFE4FCFD900058120BA290B8
:101AC0000006E0FF7D181248E4D0E04F90002FF0B0
:101AD000E0FEC006900017E0FEA3E0FDEEEDFFE49F
:101AE000FCFD900058120BA2900006E0FF7D191239
:101AF00048E4D0E04F90002FF0E0FEC006900019BF
:101B0000E0FEA3E0FDEEEDFFE4FCFD900058120BBB
:101B1000A2900006E0FF7D1A1248E4D0E04F90004A
:101B20002FF0E0FEC00690001BE0FEA3E0FDEEED0E
:101B3000FFE4FCFD900058120BA2900006E0FF7D30
:101B40001B1248E4D0E04F90002FF0E0FEC006905A
:101B5000001DE0FEA3E0FDEEEDFFE4FCFD9000586B
:101B6000120BA2900006E0FF7D1C1248E4D0E04F6B
:101B700090002FF0E0FEC006900047120BAE000070
:101B80000001900006E0FF7DC9125C9DD0E04F90FF
:101B9000002FF0E0FEC006900006E0FF7B017A0017
:101BA00079387D3E125C07D0E04F90002FF0E0FEC8
:101BB000C006900006E0FF7B017A00793C7D5E1252
:101BC0005C07D0E04F90002FF0A3120B4590003837
:101BD000120B61C3120AA4601A900034120B4590D4
:101BE000003C120B61C3120AA4600890002FE0446D
:101BF00010FF22900030120B45900006E0FB75F0BC
:101C00003A900347120C1D120BA2900034120B45A0
:101C100075F03AEB90034B120C1D120BA2021E4DF5
:101C200090002FE0FEC006900047120BAE000008A7
:101C300000900006E0FF7D30125C9DD0E04F9000E8
:101C40002FF0E0FEC006900047120BAE000000BC73
:101C5000900006E0FF7D32125C9DD0E04F90002F97
:101C6000F0E0FEC006900047120BAE00002000908E
:101C70000006E0FF7D40125C9DD0E04F90002FF009
:101C8000E0FEC006900047120BAE0000003B900043
:101C900006E0FF7D41125C9DD0E04F90002FF0E008
:101CA000FEC006900047120BAE0000007E900006BA
:101CB000E0FF7D42125C9DD0E04F90002FF0E0FEEF
:101CC000C006900047120BAE0000003B900006E0FB
:101CD000FF7D43125C9DD0E04F90002FF0E0FEC0EE
:101CE00006900047120BAE00000000900006E0FFD7
:101CF0007D59125C9DD0E04F90002FF0E0FEC006B1
:101D0000900047120BAE000000A6900006E0FF7D99
:101D100032125C9DD0E04F90002FF0E0FEC00690A4
:101D20000047120BAE00000040900006E0FF7D610E
:101D3000125C9DD0E04F90002FF0E0FEC0069000B6
:101D400047120BAE00000000900006E0FF7D32124B
:101D50005C9DD0E04F90002FF0E0FEC006900006A2
:101D6000E0FF7B017A0079387D18125C07D0E04FE4
:101D700090002FF0900007E0900041F0900008E004
:101D8000900042F0900009E0900043F090000AE0DB
:101D9000900044F0900041120B45900006E0FB7566
:101DA000F03AA42477F582E43403F583120BA29071
:101DB000000BE0900041F090000CE0900042F090A9
:101DC000000DE0900043F090000EE0900044F09091
:101DD0000041120B45EB75F03AA4247BF582E43404
:101DE00003F583120BA290000FE0900041F09000E9
:101DF00010E0900042F0900011E0900043F090005D
:101E000012E0900044F0900041120B45EB75F03A5F
:101E1000A42473F582E43403F583120BA2900034FA
:101E2000120B45900038120B61C3120AA46008908F
:101E3000002FE04410FF22900034120B4590000662
:101E4000E075F03A90034B120C1D120BA27F00229A
:101E50007B017A0079047D107F01125C07900004F9
:101E6000120B45E41204F2E4FBFAF978461203DCA3
:101E7000E4FBFA79C078401203DC900008120BA250
:101E8000E4FFFE7DA07CC0900008120B611201E20D
:101E9000E4FBFA79A078401203DC7B0A7AD779A3B5
:101EA000783B1204794029E4FFFE7DA07CC09000BD
:101EB00008120B611201E2E4FBFA79A078401203E8
:101EC000DC7B0A7AD779A378BB12047960054003DA
:101ED0007F01227B017A0079047D117F01125C076A
:101EE000900004120B45E41204F2E4FBFAF9784680
:101EF0001203DCE4FBFA79C078401203DC9000089E
:101F0000120BA2E4FFFE7DA07CC0900008120B61C2
:101F10001201E2E4FBFA79A078401203DC7B0A7A32
:101F2000D779A3783B1204794029E4FFFE7DA07C99
:101F3000C0900008120B611201E2E4FBFA79A0786C
:101F4000401203DC7B0A7AD779A378BB120479604C
:101F50000540037F02227B017A0079047D0D7F0119
:101F6000125C07900004120B45E41204F2E4FBFA41
:101F7000F978461203DC900008120BA2E4FFFE7D04
:101F8000C87CC2900008120B611201E2E4FBFA79EE
:101F9000C878421203DC7B0A7AD779A3783B120413
:101FA000794029E4FFFE7DC87CC2900008120B61D5
:101FB0001201E2E4FBFA79C878421203DC7B0A7A68
:101FC000D779A378BB120479600540037F03227B95
:101FD000017A0079047D127F01125C0790000412DF
:101FE0000B45E41204F2E4FBFAF978461203DCE450
:101FF000FBFA79C078401203DC900008120BA2E4CF
:10200000FFFE7DA07CC0900008120B611201E2E48B
:10201000FBFA79A078401203DC7B0A7AD779A3789F
:102020003B1204794029E4FFFE7DA07CC0900008AB
:10203000120B611201E2E4FBFA79A078401203DC92
:102040007B0A7AD779A378BB120479600540037FB5
:1020500004227B017A0079047D0F7F01125C0790D6
:102060000004120B45E41204F2E4FBFAF97846127C
:1020700003DCE4FBFA79C078401203DC900008121C
:102080000BA2E4FFFE7DA07CC0900008120B611241
:1020900001E2E4FBFA79A078401203DC7B0A7AD7EC
:1020A00079A3783B1204794029E4FFFE7DA07CC02F
:1020B000900008120B611201E2E4FBFA79A078406B
:1020C0001203DC7B0A7AD779A378BB120479600506
:1020D00040037F05227B017A0079047D0E7F011287
:1020E0005C07900004120B45E41204F2E4FBFAF9D9
:1020F00078461203DC900008120BA2E4FFFE7DC8B4
:102100007CC2900008120B611201E2E4FBFA79C86C
:1021100078421203DC7B0A7AD779A3783B120479E0
:102120004029E4FFFE7DC87CC2900008120B6112BA
:1021300001E2E4FBFA79C878421203DC7B0A7AD721
:1021400079A378BB120479600540037F06227B01E6
:102150007A0079047D107F02125C07900004120B54
:1021600045E41204F2E4FBFAF978461203DCE4FBDE
:10217000FA79C078401203DC900008120BA2E4FF49
:10218000FE7DA07CC0900008120B611201E2E4FB0E
:10219000FA79A078401203DC7B0A7AD779A3783BDE
:1021A0001204794029E4FFFE7DA07CC09000081253
:1021B0000B611201E2E4FBFA79A078401203DC7BA8
:1021C0000A7AD779A378BB120479600540037F07A8
:1021D000227B017A0079047D117F02125C07900056
:1021E00004120B45E41204F2E4FBFAF978461203F8
:1021F000DCE4FBFA79C078401203DC900008120B93
:10220000A2E4FFFE7DA07CC0900008120B611201C9
:10221000E2E4FBFA79A078401203DC7B0A7AD779F2
:10222000A3783B1204794029E4FFFE7DA07CC09096
:102230000008120B611201E2E4FBFA79A078401267
:1022400003DC7B0A7AD779A378BB12047960054056
:10225000037F08227B017A0079047D0D7F01125CE7
:1022600007900004120B45E41204F2E4FBFAF9783B
:10227000461203DC900008120BA2E4FFFE7DC87C2E
:10228000C2900008120B611201E2E4FBFA79C878EF
:10229000421203DC7B0A7AD779A3783B1204794097
:1022A00029E4FFFE7DC87CC2900008120B61120178
:1022B000E2E4FBFA79C878421203DC7B0A7AD77928
:1022C000A378BB120479600540037F09227B017A61
:1022D0000079047D127F01125C07900004120B4507
:1022E000E41204F2E4FBFAF978461203DCE4FBFAA8
:1022F00079C078401203DC900008120BA2E4FFFEC4
:102300007DA07CC0900008120B611201E2E4FBFA90
:1023100079A078401203DC7B0A7AD779A3783B1244
:1023200004794029E4FFFE7DA07CC0900008120BD8
:10233000611201E2E4FBFA79A078401203DC7B0A27
:102340007AD779A378BB120479600540037F0A220B
:102350007B017A0079047D0F7F01125C07900004F5
:10236000120B45E41204F2E4FBFAF978461203DC9E
:10237000E4FBFA79C078401203DC900008120BA24B
:10238000E4FFFE7DA07CC0900008120B611201E208
:10239000E4FBFA79A078401203DC7B0A7AD779A3B0
:1023A000783B1204794029E4FFFE7DA07CC09000B8
:1023B00008120B611201E2E4FBFA79A078401203E3
:1023C000DC7B0A7AD779A378BB12047960054003D5
:1023D0007F0B227B017A0079047D0E7F01125C075E
:1023E000900004120B45E41204F2E4FBFAF978467B
:1023F0001203DC900008120BA2E4FFFE7DC87CC231
:10240000900008120B611201E2E4FBFA79C87842ED
:102410001203DC7B0A7AD779A3783B12047940292E
:10242000E4FFFE7DC87CC2900008120B611201E23D
:10243000E4FBFA79C878421203DC7B0A7AD779A3E5
:1024400078BB120479600540037F0C227F00229044
:102450000822EFF0900823120C4990082EE4F0A314
:10246000E4F0900830E4F0A3E4F07BFF7A7D792675
:10247000C003C002C0017B017A087932A801AC0216
:10248000AD03D001D002D0037E007F64120681909C
:102490000823120C29AE02AF01EF4E602D900828E0
:1024A000120C29AE02AF01EF4E601F90082B120CE8
:1024B00029AE02AF01EF4E6011900826E0FEA3E0C6
:1024C000FFC3EF9407EE940050037F05229008228B
:1024D000E0FFEF120C7E24E60124FB022510032509
:1024E00025040000253890082EE4F0A37403F09032
:1024F00008307410F0A37403F0803D90082EE4F0CF
:10250000A37422F09008307410F0A37422F0802895
:1025100090082EE4F0A37432F09008307410F0A309
:102520007432F0801390082EE4F0A37451F09008F8
:10253000307410F0A37451F0900826E0FEA3E0FF81
:10254000D3EF9464EE940040037F052290082EE0C0
:10255000FEA3E0FF7B017A087932900826E0FCA315
:10256000E0FD90012DECF0A3EDF01247A07E00EF0E
:102570004E60030226EC7B017A087932900826E04F
:10258000FEA3E0FFEF24FFFDEE34FFFC12017B9081
:102590000896EFF0900826E0FEA3E0FF74312FF5D7
:1025A0008274083EF583E0FF900897EFF09008975B
:1025B000E0FF900896E0FEEE6F60030226EC9008C4
:1025C00026E0FEA3E0FF742C2FF58274083EF5830D
:1025D000E0FFE4FCFDFE7808120AC8C004C005C094
:1025E00006C007900826E0FEA3E0FF742B2FF582BB
:1025F00074083EF583E0FFE4FCFDFE7810120AC883
:10260000A804A905AA06AB07D007D006D005D004B8
:10261000120A73A804A905AA06AB07900826E0FED3
:10262000A3E0FF742D2FF58274083EF583E0FFE4EC
:10263000FCFDFE120A73900828120C29120B2B9035
:102640000826E0FEA3E0FF742F2FF58274083EF504
:1026500083E0FFE4FCFDFE7808120AC8C004C00550
:10266000C006C007900826E0FEA3E0FF742E2FF5F9
:102670008274083EF583E0FFE4FCFDFE7810120A48
:10268000C8A804A905AA06AB07D007D006D005D074
:1026900004120A73A804A905AA06AB07900826E04D
:1026A000FEA3E0FF74302FF58274083EF583E0FF4F
:1026B000E4FCFDFE120A7390082B120C29120B2B5E
:1026C000900826E0FEA3E0FF7B017A087932C00380
:1026D000C002C001900823120C29A801AC02AD036E
:1026E000D001D002D0031206817F0022900830E092
:1026F000FEA3E0FF7B017A087932900826E0FCA374
:10270000E0FD90012DECF0A3EDF01247A07E00EF6C
:102710004E600302288C7B017A087932900826E00B
:10272000FEA3E0FFEF24FFFDEE34FFFC12017B90DF
:102730000896EFF0900826E0FEA3E0FF74312FF535
:102740008274083EF583E0FF900897EFF0900897B9
:10275000E0FF900896E0FEEE6F600302288C900880
:1027600026E0FEA3E0FF742C2FF58274083EF5836B
:10277000E0FFE4FCFDFE7808120AC8C004C005C0F2
:1027800006C007900826E0FEA3E0FF742B2FF58219
:1027900074083EF583E0FFE4FCFDFE7810120AC8E1
:1027A000A804A905AA06AB07D007D006D005D00417
:1027B000120A73A804A905AA06AB07900826E0FE32
:1027C000A3E0FF742D2FF58274083EF583E0FFE44B
:1027D000FCFDFE120A73900828120C29120B2B9094
:1027E0000826E0FEA3E0FF742F2FF58274083EF563
:1027F00083E0FFE4FCFDFE7808120AC8C004C005AF
:10280000C006C007900826E0FEA3E0FF742E2FF557
:102810008274083EF583E0FFE4FCFDFE7810120AA6
:10282000C8A804A905AA06AB07D007D006D005D0D2
:1028300004120A73A804A905AA06AB07900826E0AB
:10284000FEA3E0FF74302FF58274083EF583E0FFAD
:10285000E4FCFDFE120A7390082B120C29120B2BBC
:10286000900826E0FEA3E0FF7B017A087932C003DE
:10287000C002C001900823120C29A801AC02AD03CC
:10288000D001D002D0031206817F002290082EE0F2
:10289000FEA3E0FF7B017A087932900826E0FCA3D2
:1028A000E0FD90012DECF0A3EDF01247A07E00EFCB
:1028B0004E60047F01803E900830E0FEA3E0FF7B85
:1028C000017A087932900826E0FCA3E0FD90012D02
:1028D000ECF0A3EDF01247A07E00EF4E60047F0104
:1028E0008013900822E0FF7E00EF64014E70047FA9
:1028F0000380027F0422900046EFF0FBE4A3F0A3E4
:10290000120BAE0000000090004C120BAE00000055
:1029100000900050120BAE00000000EBFF3395E07A
:10292000FE7C007D3A12077674452FF974033EFA57
:102930007B01900054120C49900001E4120754905E
:102940000046E0FF3395E0FEC3EF9401EE6480940F
:10295000805003022D04D3EF9404EE6480948040F1
:1029600003022D04C3EF9403EE64809480400302BD
:102970002B96A3E0FEC006900046E07A00794C7DDD
:102980003E125C07D0E04F900047F0600F9000547B
:10299000120C291206C9440112074222900047E096
:1029A000FEC006900046E0FF7B017A0079507D5E14
:1029B000125C07D0E04F900047F0600F9000541277
:1029C0000C291206C9440112074222900054120C2D
:1029D00029900002120AFB90004C120B61C3120AEC
:1029E000A47018900054120C29900006120AFB9053
:1029F0000050120B61C3120AA4600E900054120C16
:102A0000291206C94402120742900047E0FEC006A0
:102A1000900046E0FF7B017A0079487D1B125C073D
:102A2000D0E04F900047F0600F900054120C291234
:102A300006C9440112074222900048120B45EF5488
:102A400001FFE4FEFDFCEF600E900054120C291211
:102A500006C94402120742900048120B45EF540287
:102A6000FFE4FEFDFCEF7003022D04900054120CF5
:102A70002990000E120BF900000000900012120BBA
:102A8000F900000000900016120BF9000000009001
:102A9000001A120BF90000000090001E120BF90042
:102AA000000000900022120BF90000000090004787
:102AB000E0FEC006900046E0FFE9240EF9E43AFA91
:102AC0007D0D125C07D0E04F900047F0E0FEC0069D
:102AD000900046E0FF900054120C29E92412F9E41A
:102AE0003AFA7D0E125C07D0E04F900047F0E0FE0E
:102AF000C006900046E0FF900054120C29E924160D
:102B0000F9E43AFA7D0F125C07D0E04F900047F0ED
:102B1000E0FEC006900046E0FF900054120C29E948
:102B2000241AF9E43AFA7D10125C07D0E04F9000C5
:102B300047F0E0FEC006900046E0FF900054120C03
:102B400029E9241EF9E43AFA7D11125C07D0E04F1E
:102B5000900047F0E0FEC006900046E0FF90005471
:102B6000120C29E92422F9E43AFA7D12125C07D00A
:102B7000E04F900047F0600F900054120C291206AD
:102B8000C9440112074222900054120C29900001FE
:102B9000740112075422900047E0FEC006900046E0
:102BA000E0FF7B017A00794C7D18125C07D0E04F82
:102BB000900047F030E00F900054120C291206C923
:102BC000440112074222900054120C299000061270
:102BD0000AFB90004C120B61C3120AA4600E900015
:102BE00054120C291206C94402120742900047E011
:102BF000FEC006900046E0FF7B017A0079487D31F7
:102C0000125C07D0E04F900047F030E00F90005486
:102C1000120C291206C944011207422290004812E0
:102C20000B45E4FFEE5408FEE4FDFCEE7003022DBC
:102C300004900054120C2990000E120BF9000000B1
:102C40000090001A120BF900000000900026120BF1
:102C5000F90000000090002A120BF900000000901B
:102C60000047E0FEC006900046E0FFE9241AF9E4C0
:102C70003AFA7D06125C07D0E04F900047F0E0FE84
:102C8000C006900046E0FF900054120C29E9240E83
:102C9000F9E43AFA7D08125C07D0E04F900047F063
:102CA000E0FEC006900046E0FF900054120C29E9B7
:102CB0002426F9E43AFA7D0A125C07D0E04F90002E
:102CC00047F0E0FEC006900046E0FF900054120C72
:102CD00029E9242AF9E43AFA7D0B125C07D0E04F87
:102CE000900047F030E00F900054120C291206C9F2
:102CF000440112074222900054120C2990000174E2
:102D00000112075422440549000000005005AA00A2
:102D10000000000000000000000000000000004271
:102D200005E00000C1004105BA004105BB004205B5
:102D3000E200004205D600006037055D000000009B
:102D40000000000000000000000000000000000083
:102D50000000000000000000000000000000000073
:102D60000000000000000000000000000000000063
:102D70000000004B0594000000000000000000006F
:102D8000004B059F00000000000000000000004113
:102D9000053200410548004C04670001000A006448
:102DA00003E8271086A046047900000000000041D7
:102DB000047F004104800044052C0000000042050F
:102DC00030000046061400000000000041061A0012
:102DD00041061C004106C8014106880141068A01DE
:102DE00041061D0141068B00410689004606D700B9
:102DF000000000000042076400004107390044075A
:102E000076000000005007540000000000000000A1
:102E100000000000000000004206C90000C101508F
:102E20000766000000000000000000000000000035
:102E300000004407400000000046073A0000000080
:102E400000005007440000000000000000000000E7
:102E50000000000000500719000000000000000002
:102E60000000000000000000500709000000000002
:102E700000000000000000000000005007290000D2
:102E80000000000000000000000000000000C1027F
:102E9000440A7500000000C103C104410A920041C8
:102EA000090A00420908FFFF410959224109722D10
:102EB000420973008058095A000000010000001008
:102EC00000000100000010000001000000100000E0
:102ED00060E8037F00000000000000000000000028
:102EE00000000000000000000000000000000000E2
:102EF00000000000000000000000000000000000D2
:102F000000000000000000000000000000000000C1
:102F100000000000000000000000000000000000B1
:102F200000000000000000000000000000000000A1
:102F30000000000000000000000000000000000091
:102F40000000000000000000000000000000000081
:102F50000000000000000000000000000000000071
:102F60000000000000000000000000000000000061
:102F70000000000000000000000000000000000051
:102F80000000000000000000000000000000000041
:102F90000000000000000000000000000000000031
:102FA0000000000000000000000000000000000021
:102FB000000000000000000000000000C105410A00
:102FC000940000900A8BE4F07B017A07799C1265EB
:102FD00086900A8BEFF0900A8BE0FFC0077B017AA6
:102FE0000779BF126626AE07D007EF4EFF900A8B17
:102FF000EFF0900A8BE0FFC0077B017A087900129E
:1030000066C6AE07D007EF4EFF900A8BEFF0900A2E
:103010008BE0FFC0077B017A0779AF126766AE07C6
:10302000D007EF4EFF900A8BEFF0900A8CE4F090FF
:103030000A8CE0FF7E00C3EF9404EE64809480501D
:103040003B900A8BE0FFC007900A8CE0FF7E07EF01
:103050008EF0A4FFAEF074062FF974083EFA7B01DF
:10306000900A8CE0FF1251A0AE07D007EF4EFF9000
:103070000A8BEFF0900A8CE004F080B3900A8BE0AA
:10308000FFC0077B017A0779A0126806AE07D00758
:10309000EF4EFF900A8BEFF0900A8BE0FFC0077BAA
:1030A000017A0779A5126946AE07D007EF4EFF9067
:1030B0000A8BEFF0900A8BE0FFC0077B017A08795A
:1030C000051269E6AE07D007EF4EFF900A8BEFF0CE
:1030D000900A8BE0FFC0077B017A0779AE126A86FF
:1030E000AE07D007EF4EFF900A8BEFF0900A8BE00F
:1030F000FFC0077B017A0779AD126B26AE07D007B8
:10310000EF4EFF900A8BEFF0900A8CE4F0900A8C5F
:10311000E0FF7E00C3EF9404EE64809480503B9007
:103120000A8BE0FFC007900A8CE0FF7E0FEF8EF065
:10313000A4FFAEF074C42FF974073EFA7B01900A25
:103140008CE0FF125265AE07D007EF4EFF900A8B5E
:10315000EFF0900A8CE004F080B3900A8CE4F090D9
:103160000A8CE0FF7E00C3EF9404EE6480948050EC
:103170003B900A8BE0FFC007900A8CE0FF7E03EFD4
:103180008EF0A4FFAEF0747A2FF974073EFA7B013B
:10319000900A8CE0FF1253EFAE07D007EF4EFF907E
:1031A0000A8BEFF0900A8CE004F080B3900A8BE079
:1031B000FFC0077B017A0779AB126BC6AE07D00759
:1031C000EF4EFF900A8BEFF0900A8BE0FFC0077B79
:1031D000017A077986126C66AE07D007EF4EFF9032
:1031E0000A8BEFF0900A8BE0FF22900988EEF0A3A3
:1031F000EFF090098AECF0A3EDF090098CEAF0A3CF
:10320000EBF0900990120C29AE02AF01EF4E700363
:103210007F02229009987402F0900988E0FEA3E0F2
:10322000FF900990120C29900993E0FCA3E0FD9017
:10323000012DECF0A3EDF01247A0900997EFF0906C
:103240000997E0FF7E00EF4E602E900998E014F0A1
:10325000900998E0FF7E00D3EF9400EE64809480A4
:10326000401680028012900998E0FF7E00D3EF9410
:1032700000EE6480948050A1900997E0FF7E00EFFB
:103280004E70709009987402F090098AE0FEA3E0F5
:10329000FF7B017A09799590012DE4F0A37401F088
:1032A0001247A0900997EFF0900997E0FF7E00EF9A
:1032B0004E6018900998E014F0900998E0FF7E00A5
:1032C000D3EF9400EE6480948050BE900997E0FFA5
:1032D0007E00EF4E701D900990120C29900993E02A
:1032E000FCA3E0FD12017B900995E0FEEFB506031B
:1032F0007F00229009987402F090098CE0FEA3E010
:10330000FF900990120C29900993E0FCA3E0FD9036
:10331000012DECF0A3EDF01247A0900997EFF0908B
:103320000997E0FF7E00EF4E6018900998E014F0D6
:10333000900998E0FF7E00D3EF9400EE64809480C3
:1033400050B7900997E0FF7E00EF4E60030233FB19
:103350009009987402F090098EE0FEA3E0FF7B01D3
:103360007A09799690012DE4F0A37401F01247A038
:10337000900997EFF0900997E0FF7E00EF4E6018FC
:10338000900998E014F0900998E0FF7E00D3EF9444
:1033900000EE6480948050BE900997E0FF7E00EFBD
:1033A0004E7058900990120C29900993E0FCA3E00C
:1033B000FD12017B900996E0FEEF6E703E90098849
:1033C000E0FEA3E0FF900990120C29900993E0FC25
:1033D000A3E0FD900064ECF0A3EDF0124D3F9009E6
:1033E0008AE0FEA3E0FF7B017A097996900064E40D
:1033F000F0A37401F0124D3F7F0322900997E0FF84
:103400007E00EF64014E70047F0180027F042290F1
:10341000026EEEF0A3EFF0900270ECF0A3EDF090EE
:103420000272EAF0A3EBF090037D7401F090027653
:10343000120C29AE02AF01EF4E70037F0222900200
:1034400079E0FEA3E0FFEF4E6011900279E0FEA369
:10345000E0FFD3EF9400EE940140037F0522900239
:1034600076120C29900279E0FCA3E0FD12017B901A
:10347000027BEFF090026EE0FEA3E0FF9002761276
:103480000C29900279E0FCA3E0FD900064ECF0A32D
:10349000EDF0124D3F90037EEFF090037EE0FFC011
:1034A00007900270E0FEA3E0FF7B017A02797B9037
:1034B0000064E4F0A37401F0124D3FAE07D007EFB3
:1034C0004EFF90037EEFF07E017F007D007B017A4E
:1034D00002797C120E8190026EE0FEA3E0FF7B0178
:1034E0007A02797C900279E0FCA3E0FD90012DEC5A
:1034F000F0A3EDF01247A0900279E0FEA3E0FF9068
:103500000276120C29C003C002C0017B017A027945
:103510007CA801AC02AD03D001D002D003120E5D35
:10352000EF3395E0FEEF4E600590037DE4F09002EE
:1035300070E0FEA3E0FF7B017A03797C90012DE42B
:10354000F0A37401F01247A090027BE0FF90037C8F
:10355000E0FEEE6F600590037DE4F0900272E0FE05
:10356000A3E0FF900276120C29900279E0FCA3E020
:10357000FD900064ECF0A3EDF0124D3F900274E07A
:10358000FEA3E0FF7B017A02797B900064E4F0A364
:103590007401F0124D3F7E017F007D007B017A02B5
:1035A000797C120E81900272E0FEA3E0FF7B017A2B
:1035B00002797C900279E0FCA3E0FD90012DECF013
:1035C000A3EDF01247A0900279E0FEA3E0FF900285
:1035D00076120C29C003C002C0017B017A02797CFB
:1035E000A801AC02AD03D001D002D003120E5DEFF2
:1035F0003395E0FEEF4E600590037DE4F090027499
:10360000E0FEA3E0FF7B017A03797C90012DE4F0DA
:10361000A37401F01247A090027BE0FF90037CE0CE
:10362000FEEE6F600590037DE4F07F00227B017A5F
:103630000079047D107F01125C07E4FF7E05FDFC2C
:10364000900004120B61D3120AA440037F01227B75
:10365000017A0079047D117F01125C07E4FF7E0589
:10366000FDFC900004120B61D3120AA440037F02F8
:10367000227B017A0079047D0D7F01125C07E4FF53
:103680007E05FDFC900004120B61D3120AA44003D6
:103690007F03227B017A0079047D127F01125C078F
:1036A000E4FF7E05FDFC900004120B61D3120AA416
:1036B00040037F04227B017A0079047D0F7F011291
:1036C0005C07E4FF7E05FDFC900004120B61D31241
:1036D0000AA440037F05227B017A0079047D0E7FD6
:1036E00001125C07E4FF7E05FDFC900004120B61F3
:1036F000D3120AA440037F06229007ABE0D39402C2
:103700007480948050030237DF7B017A0079047D56
:10371000107F02125C07E4FF7E05FDFC900004129E
:103720000B61D3120AA440037F07227B017A007940
:10373000047D117F02125C07E4FF7E05FDFC900012
:1037400004120B61D3120AA440037F08227B017A82
:103750000079047D0D7F02125C07E4FF7E05FDFC0D
:10376000900004120B61D3120AA440037F09227B4C
:10377000017A0079047D127F02125C07E4FF7E0566
:10378000FDFC900004120B61D3120AA440037F0ACF
:10379000227B017A0079047D0F7F02125C07E4FF2F
:1037A0007E05FDFC900004120B61D3120AA44003B5
:1037B0007F0B227B017A0079047D0E7F02125C0769
:1037C000E4FCFDFE900004120BA2E4FF7E05FDFC6C
:1037D000900004120B61D3120AA440037F0C227BD9
:1037E000017A0079047D087F04125C07E4FF7E05FE
:1037F000FDFC900004120B61D3120AA440037F0D5C
:10380000227B017A0079047D067F04125C07E4FFC5
:103810007E05FDFC900004120B61D3120AA4400344
:103820007F0E227F002278027C007D017BFF7A7D63
:1038300079FB7E007F0B120681AE84E490000DF0D0
:10384000A3F075840F20CC03FF80027F019000025B
:10385000EFF020CD047F0080027F01900003EFF0A5
:1038600020A0047F0080027F01900004EFF020A1DF
:10387000047F0080027F01900005EFF020A2047F0A
:103880000080027F01900006EFF020A3047F0080FB
:10389000027F01900007EFF020A4047F0080027FE8
:1038A00001900008EFF020A5047F0080027F0190C6
:1038B0000009EFF020A6047F0080027F0190000A3B
:1038C000EFF020A7047F0080027F0190000BEFF053
:1038D0002093047F0080027F0190000CEFF0AF0680
:1038E0008F84E4FBEBC3940B748094804003023A12
:1038F0001C74022BF582E43400F583E0FF74942BF2
:10390000F582E43405F583E0FEEB75F005A4245D53
:10391000F582E43405F583E5822EF582E43583F5FE
:1039200083EFF074942BF582E43405F583E004759D
:10393000F0058474942BF582E43405F583E5F0F00A
:1039400074942BF582E43405F583E0701A749F2B90
:10395000F582E43405F583E0700D749F2BF582E465
:103960003405F5837401F0749F2BF582E43405F57A
:1039700083E07003023A18E4FAFCFDEDC394057489
:103980008094805024EB75F005A4245DF582E43426
:1039900005F583E5822DF582E43583F583E0640146
:1039A00070030A80010C0D80D27E007401A8030808
:1039B0008005C333CE33CED8F9FF90000DEEF0A3CF
:1039C000EFF0C3EC94037480948040209005D6E01F
:1039D000FEA3E0FF90000DE0FCA3E0FDEE4CFEEF47
:1039E0004DFF9005D6EEF0A3EFF0802CC3EA9403D0
:1039F0007480948040229005D6E0FEA3E0FF900002
:103A00000DE0FCA3E0F4FDECF4FCEE5CFEEF5DFFEA
:103A10009005D6EEF0A3EFF00B0238E4229009B93E
:103A2000120C499009BF120BAE000000009009B9BA
:103A3000120C291206C9FF7E00EF24D0FFEE3407D6
:103A4000FE9009C3EEF0A3EFF09009C57407F0A350
:103A500074D0F09009C3E0FEA3E0FF9009C5E0FC3C
:103A6000A3E0FDC3ED9FEC9E505B9009BF120B4598
:103A7000C004C005C006C0079009C5E0FEA3E0FF72
:103A8000126D53EF60127F007E857DE27C01AB07F3
:103A9000AA06A905A80480107F807E337DE17C0101
:103AA000AB07AA06A905A804D007D006D005D00404
:103AB00012093B9009BF120BA29009C5E475F001F1
:103AC000120813808E9009C77401F09009B9120C86
:103AD000297582017583001206E2FF9009C7E0FE96
:103AE000EEC39F504E9009BF120B45C004C005C0E5
:103AF00006C0079009C3E0FEA3E0FF9009C7E0FD00
:103B000012636FE4FCFDFE7B807A5179017800122C
:103B10000956A804A905AA06AB07D007D006D00508
:103B2000D00412093B9009BF120BA29009C7E00410
:103B3000F080989009BF120B45C004C005C006C0B4
:103B4000079009B9120C297582027583001206E2EA
:103B5000FFEF14FFE4FCFDFE7B807A5179017800D1
:103B6000120956C004C005C006C0079009BC120C5B
:103B7000291206C9FF7E007C0E7D10120CAAA80433
:103B8000A905AA06AB07D007D006D005D0041209B4
:103B90003BC004C005C006C0079009BC120C2975C3
:103BA00082017583001206E2FF7E007C007D3C12DC
:103BB0000CAAA804A905AA06AB07D007D006D00511
:103BC000D00412093BC004C005C006C0079009BC60
:103BD000120C297582027583001206E2FFAB07E41E
:103BE000FAF9F8D007D006D005D00412093BA80492
:103BF000A905AA06AB07D007D006D005D004120944
:103C00003B9009BF120BA29009BF120B45229008EE
:103C100098EFF0900899120C4990089EE4F0A3E404
:103C2000F07BFF7A7D798AC003C002C0017B017AF4
:103C30000879A0A801AC02AD03D001D002D0037E68
:103C4000007F641206819009047402F0900905E473
:103C5000F0900899120C29AE02AF01EF4E70037F6D
:103C60000222900898E0FFEF120C7E3C7B013C861C
:103C7000023C91033C9C0400003CA590089EE4F0AB
:103C8000A37403F0801F90089EE4F0A37422F080D8
:103C90001490089EE4F0A37432F0800990089EE42A
:103CA000F0A37451F0900904E0FF14F0EF700302E8
:103CB0003D9790089EE0FEA3E0FF900899120C2922
:103CC00090089CE0FCA3E0FD900064ECF0A3EDF014
:103CD000124D3F7E00EF4E70CC7E007F647D007BF6
:103CE000017A0879A0120E8190089EE0FEA3E0FF01
:103CF0007B017A0879A090089CE0FCA3E0FD90018C
:103D00002DECF0A3EDF01247A07E00EF4E709690E0
:103D1000089CE0FEA3E0FF900899120C29C003C0A4
:103D200002C0017B017A0879A0A801AC02AD03D0E2
:103D300001D002D003120E5DEF3395E0FEEF4E602E
:103D400003023CA57B017A0879A090089CE0FEA3C1
:103D5000E0FFEF24FFFDEE34FFFC12017B9009062B
:103D6000EFF090089CE0FEA3E0FF749F2FF58274B3
:103D7000083EF583E0FF900907EFF0900907E0FFA8
:103D8000900906E0FEEE6F6003023CA59009057401
:103D900001F08003023CA5900905E0FFEF60047F7D
:103DA0000080027F06229000047401F09007ABE0CF
:103DB000D394027480948040089000057403F080CE
:103DC000069000057402F09000047401F090000564
:103DD000E0FE900004E0FFC39E4003023E86C00761
:103DE000900047120BAE0000005AD0077DC9125C4C
:103DF0009D900047120BAE00000000900004E0FF11
:103E00007D24125C9D900047120BAE0000000090D4
:103E10000004E0FF7D25125C9D900047120BAE0070
:103E2000000000900004E0FF7D26125C9D9000479A
:103E3000120BAE00000000900004E0FF7D27125C32
:103E40009D900047120BAE00000000900004E0FFC0
:103E50007D28125C9D900047120BAE000000009080
:103E60000004E0FF7D29125C9D900047120BAE001C
:103E7000000001900004E0FF7DC9125C9D900004E9
:103E8000E004F0023DCD7F647E0012705490004744
:103E9000120BAE0000005A7DC97F01125C9D90009C
:103EA00047120BAE0000005A7DC97F02125C9D7D57
:103EB000017F01124E457D027F01124E457D037F39
:103EC00001124E457D047F01124E457D057F011292
:103ED0004E457D067F01124E457D017F02124E4503
:103EE0007D027F02124E457D037F02124E457D0406
:103EF0007F02124E457D057F02124E457D067F02F0
:103F0000124E45900047120BAE000000017DC97FA4
:103F100001125C9D900047120BAE000000017DC9AC
:103F20007F02125C9D229007ABE0D39402748094D0
:103F30008040089000057403F0800690000574022C
:103F4000F09000047401F0900005E0FE900004E0A1
:103F5000FFC39E4003024000C007900047120BAE13
:103F60000000005AD0077DC9125C9D900047120BDB
:103F7000AE00000000900004E0FF7D17125C9D90F1
:103F80000047120BAE00000000900004E0FF7D1817
:103F9000125C9D900047120BAE00000000900004E0
:103FA000E0FF7D19125C9D900047120BAE000000EF
:103FB00000900004E0FF7D1A125C9D900047120BF8
:103FC000AE00000000900004E0FF7D1B125C9D909D
:103FD0000047120BAE00000000900004E0FF7D1CC3
:103FE000125C9D900047120BAE000000019000048F
:103FF000E0FF7DC9125C9D900004E004F0023F47A1
:104000007F647E00127054900047120BAE000000D7
:104010005A7DC97F01125C9D900047120BAE0000D3
:10402000005A7DC97F02125C9D7D017F011244F11F
:104030007D027F011244F17D037F011244F17D0472
:104040007F011244F17D057F011244F17D067F015D
:104050001244F17D017F021244F17D027F0212447D
:10406000F17D037F021244F17D047F021244F17D51
:10407000057F021244F17D067F021244F190004751
:10408000120BAE000000017DC97F01125C9D900003
:1040900047120BAE000000017DC97F02125C9D2219
:1040A0009009C8120C499009C8120C29AE02AF0140
:1040B000EF4E7003024211C2AF9005D0E0FF9009AD
:1040C000CBEFF09005D1E0FF9009CCEFF09005D256
:1040D000E0FF9009CDEFF09005D3E0FF9009CEEF1F
:1040E000F09005D4E0FF9009CFEFF09005D5E0FF08
:1040F0009009D0EFF0D2AF9009CBE0FFEF75F00A56
:1041000084FFEFC454F0FF9009CBE0FEEE75F00A97
:1041100084AEF0EE4FFF9009C8120C297582067527
:104120008300EF1207549009CCE0FFEF75F00A848A
:10413000FFEFC454F0FF9009CCE0FEEE75F00A8466
:10414000AEF0EE4FFF9009C8120C297582077583F7
:1041500000EF1207549009CDE0FFEF75F00A84FFDD
:10416000EFC454F0FF9009CDE0FEEE75F00A84AE86
:10417000F0EE4FFF9009C8120C2975820875830074
:10418000EF1207549009CEE0FFEF75F00A84FFEFBD
:10419000C454F0FF9009CEE0FEEE75F00A84AEF054
:1041A000EE4FFF9009C8120C29758209758300EF44
:1041B0001207549009CFE0FFEF75F00A84FFEFC4B7
:1041C00054F0FF9009CFE0FEEE75F00A84AEF0EEF9
:1041D0004FFF9009C8120C2975820A758300EF12EF
:1041E00007549009D0E0FFEF75F00A84FFEFC45444
:1041F000F0FF9009D0E0FEEE75F00A84AEF0EE4FCD
:10420000FF9009C8120C2975820B758300EF120705
:104210005422900076EFF0A3120C49E490007AF05B
:10422000A3F0A3F0A3F0A3F0A3F0E94A601A900072
:1042300076E0FF7E00C3940174809480400AD3EF3F
:1042400094047480948040037F0122900077120CC4
:1042500029120BDF00000000900076E024FE600EC3
:1042600014600F1460102403700EC2B1800AC2B231
:104270008006C2B38002C2B4AF057B017A00797AAE
:10428000125DBD90007FEFF060030243607B017A16
:1042900000797A7FFF125DBD90007FEFF06003022E
:1042A00043607B017A00797B7FFF125DBD90007FC8
:1042B000EFF060030243607B017A00797C7FFF129C
:1042C0005DBD90007FEFF0600302436090007DF0E1
:1042D000A3F0E59A5480601990007DE475F0011216
:1042E0000829FED3E5F09464EE940040E580028056
:1042F000E190007BE0FFE4FCFDFE7808120AC8C0F4
:1043000004C005C006C00790007AE0FFE4FCFDFE93
:104310007810120AC8D003D002D001D000120A735C
:10432000A804A905AA06AB0790007CE0FFE4FCFD09
:10433000FE120A73900077120C29120B2B90007654
:10434000E024FE600E14600F1460102403700ED27F
:10435000B1800AD2B28006D2B38002D2B47F0022EA
:10436000900076E024FE600E14600F1460102403A9
:10437000700ED2B1800AD2B28006D2B38002D2B41B
:104380007F0122900144EFF0E075F00BA4240BF9BB
:10439000740935F0FA7B01A3120C49120C5E120C61
:1043A000A4EF7003024497900145120C299000037A
:1043B0001206E2C394037480948050089000037442
:1043C0000112070F9000031206E264036003024427
:1043D000F09000081206E2702490000804120754BE
:1043E000900004E4F5F012090E90000AE41207545C
:1043F000900144E075F003A404FF1271759001452B
:10440000120C2990000612086AFFAEF0D39400EE59
:10441000940050030244F0900004E475F001120887
:10442000A2FCC3E5F09FEC9E403590000612086A9E
:10443000FF900004E5F08FF012090E9000091206BB
:10444000E2600E900145120C2990000A1206E270FB
:104450000E900144E075F003A42403FF12717590DF
:104460000145120C299000091206E2FFD394007452
:10447000809480407B90000A740112070FC39F4014
:104480006F90000AE4120754900144E075F003A411
:104490002402FF12717522900145120C299000032D
:1044A0001206E2D394007480948040089000037454
:1044B000FF12070F9000031206E2703490000812FA
:1044C00006E264017014900008120754900144E061
:1044D00075F003A42402FF127175900145120C2996
:1044E000900004E4F5F012090E90000AE41207545B
:1044F00022900006EFF0A3EDF0FF7E006401700A49
:104500009000107410F0A3741AF0EF64024E700A59
:104510009000107411F0A3741BF0EF64034E700A46
:10452000900010740DF0A37417F0EF64044E700A3D
:104530009000107412F0A3741CF0EF64054E700A22
:10454000900010740FF0A37419F0EF64064E700A17
:10455000900010740EF0A37418F0900006E0FF9025
:104560000010E0FD7B017A007908125C07900008DA
:10457000120B45E41204F2E4FBFAF978461203DC6C
:1045800090000C120BA2900007E0FF6403603DEF67
:104590006406603890000C120B45E4FBFA79C07891
:1045A000401203DC90000C120BA290000C120B6165
:1045B000E4FFFE7DA07C401203DCE4FBFA79807806
:1045C000BF1201E290000C120BA2802090000C128E
:1045D0000B61E4FFFE7DC87C421203DCE4FBFA7948
:1045E0008078BF1201E290000C120BA2E4FFFEFDE6
:1045F000FC90000C120B61120479401AE4FFFEFDDE
:104600007C4790000C120B611202D312053090000F
:1046100008120BA28022E4FFFEFD7C4790000C12E2
:104620000B611202D3E4FBFA798078471201E2129F
:104630000530900008120BA2900008120B45900064
:1046400047120BA2900011E0FD900006E0FF125C03
:104650009D22E4900002F012722A7F647E001270A4
:1046600054122FC3900002EFF014601B14601C243E
:1046700002701A7B017A0579D0125A367B017A05CD
:1046800079D3125AD38006C2968002C2967F141242
:10469000729890079DE0FEA3E0FFE4FCFD1263002A
:1046A00012019E1273AD1261AC1201449005BC124E
:1046B0000BAE000000009005C0120BAE0000000021
:1046C0009005C4120BAE000000009005C8120BAE9E
:1046D000000000009005CC120BAE00000000900519
:1046E000E4120BAE000000009005E8120BAE0000D3
:1046F00000009005EC120BAE000000009005F012D7
:104700000BAE000000009005F4120BAE000000009C
:104710009005F8120BAE000000009005FC120BAEE5
:1047200000000000900600120BAE00000000900692
:1047300004120BAE00000000900608120BAE000041
:10474000000090060C120BAE000000009006101244
:104750000BAE00000000E49005D6F0A3F0900764D3
:10476000F0A3F0C201C205900A94F0900002F0900C
:104770000002E0FFFD3395E0FCC3ED9406EC64809D
:1047800094805019EF3395E0FE74D72FF5827406AC
:104790003EF583E4F0900002E004F080D2D2AF2234
:1047A000900128EEF0A3EFF0A3120C49900132E53E
:1047B00084F0E4F58490012A120C29E94A601990EA
:1047C000012DE07002A3E0600FD3900129E094FF77
:1047D000900128E0947F4009900132E0F5847F0247
:1047E000221264E090012FEFF06009900132E0F5B1
:1047F000847F01227FA0125FC390012FEFF0600C35
:104800001270C5900132E0F5847F0122900128E00A
:10481000FF12613490012FEFF0600C1270C590010F
:1048200032E0F5847F0122900128E0A3E0FF1261CD
:104830003490012FEFF0600C1270C5900132E0F55A
:10484000847F012212653490012FEFF0600C12700A
:10485000C5900132E0F5847F01227FA1125FC390F1
:10486000012FEFF0600C1270C5900132E0F5847FEB
:104870000122E4900130F0A3F090012DE0FEA3E0CE
:10488000FF900130E0FCA3E0FDC39FEC9E5049EF98
:1048900024FFFFEE34FFFEEDB50708ECB506047FFC
:1048A0000080027F01900133EFF090012A120C2961
:1048B000E92DF9EA3CFA125EC990012FEFF0600C85
:1048C0001270C5900132E0F5847F0122900130E43E
:1048D00075F00112081380A11270C5900132E0F545
:1048E000847F0022AB05900056EFF0E490005CF06E
:1048F000A3F0A3F0A3F0A3F0A3F0A3F0FEC3EF9402
:104900000174809480400AD3EF94047480948040B2
:10491000037F0322900058120B457810120AB590BD
:104920000060EFF0900058120B457808120AB5901D
:104930000061EFF0900058120B45900062EFF0908C
:104940000056E024FE600E14600F14601024037003
:104950000EC2B1800AC2B28006C2B38002C2B4EBFA
:104960004480FBFF7B017A00795E125DBD90005FA1
:10497000EFF06003024A00A3E0FF7B017A00795E5A
:10498000125DBD90005FEFF07076900061E0FF7BFC
:10499000017A00795E125DBD90005FEFF07061906A
:1049A0000062E0FF7B017A00795E125DBD90005FDE
:1049B000EFF0704C90005CF0A3F0E59A5480601D1D
:1049C00090005CE475F001120829FED3E5F09464D0
:1049D000EE940040E590005F7402F0802390005652
:1049E000E024FE600E14600F1460102403700ED2D9
:1049F000B1800AD2B28006D2B38002D2B47F002244
:104A0000D2B1D2B2D2B3D2B47F0222E4FFFB900083
:104A10000DF0A3F09005D3E0FAA3E090000AF09027
:104A200005D2E0FE90000BF09005D1E090000CF074
:104A30009005D0E0F9900788E0FDEEB505159007E8
:104A400087E0FE90000CE0B50609900786E0FEE9DD
:104A50006E60027F01900787E0FE90000CE0B506D3
:104A600007900786E06960027B01EF7006EB700338
:104A7000024B03EA700D90000AE0D3940374809413
:104A8000804018EAD39400748094804003EF700B48
:104A9000EAC374809480406BEB6068EF601A900703
:104AA0008C120BAE00000000900790120BAE0000BD
:104AB000000090000D7401F0EB601A900794120B47
:104AC000AE00000000900798120BAE0000000090AE
:104AD000000D7401F0900786E9F090000CE090075B
:104AE00087F090000BE0900788F0A3EAF090000AAE
:104AF000E090078AF09005D5E090078BF090000ECB
:104B00007401F090000DE060097B017A07798C1246
:104B100068F690000EE060097B017A077986126CD6
:104B2000B622AB07900068120BAE00000000E490C4
:104B3000006CF0A3F0A3F0A3F0A3F0A3F0A3F0A304
:104B4000F0A3F0EBFF7E00C3940174809480400AD0
:104B5000D3EF94047480948040037F0222EBC394CB
:104B600003748094805008900075742EF080069035
:104B700000757417F0AF03900075E0FD7B017A00BB
:104B80007968124212900074EFF060037F01229066
:104B90000068120B457810120AB5EFE4A9079000DF
:104BA0006CE9F0900068120B45EFEEE490006DEEBA
:104BB000F0A3EFF0900063120B457810120AB5EFE6
:104BC000E4900071EFF0FB900063120B457808123F
:104BD0000AB5EFE4900072EFF0FA900063120B4513
:104BE000EFE4900073EFF0900067E0FEFD90006F3F
:104BF000E4F0A3EDF0EBFD90006FE48DF0120813EC
:104C0000EAFD90006FE48DF0120813EFFD90006F45
:104C1000E48DF0120813E96E60037F042290006FA8
:104C2000E0FEA3E0FF90006DE06E7003A3E06F6014
:104C3000037F04227F0022C0E0C083C082C0D07501
:104C4000D000C001C002C003C004C005C006C00738
:104C5000E4FDA984F58420ED03024D24C2EDAFBF2D
:104C6000EFFEACBEECFBEEEBFF8984C3EF945AEE93
:104C7000940E4009D3EF94FAEE940E405AC3EF9489
:104C8000B0EE940A4009D3EF9450EE940B4048C321
:104C9000EF9427EE94084009D3EF94C7EE940840B0
:104CA00036C3EF948EEE94064009D3EF942EEE9423
:104CB000074024C3EF9427EE94044009D3EF94C730
:104CC000EE94044012C3EF94B0EE94014013D3EF7E
:104CD0009450EE9402500A7D019005BB7401F0805F
:104CE000139005BBE070047D0180099005BAE4F0E3
:104CF000A3F08034ED602DC2AF9005BAE025E0242A
:104D0000AAF582E43405F583EEF0A3EFF09005BA3E
:104D1000E004F0E0C39408748094804005E4F0124D
:104D20004FFBD2AFAF018F84D007D006D005D0049F
:104D3000D003D002D001D0D0D082D083D0E0329046
:104D4000005FEEF0A3EFF0A3120C49900069E58438
:104D5000F0E4F584900061120C29E94A6022900089
:104D600064E0FEA3E0FF4E6017D3900060E094FF84
:104D700090005FE0947F5008EF9440EE940040096B
:104D8000900069E0F5847F02221264E0900066EFF3
:104D9000F06009900069E0F5847F01227FA0125F36
:104DA000C3900066EFF0600C1270C5900069E0F5EA
:104DB000847F012290005FE0FF126134900066EF73
:104DC000F0600C1270C5900069E0F5847F012290BC
:104DD000005FE0A3E0FF126134900066EFF0600C2A
:104DE0001270C5900069E0F5847F0122E4900067AD
:104DF000F0A3F0900064E0FEA3E0FF900067E0FC09
:104E0000A3E0FDC39FEC9E5030900061120C298DF1
:104E1000828C831206E2FF126134900066EFF0602C
:104E20000C1270C5900069E0F5847F012290006744
:104E3000E475F00112081380BA1270C5900069E0A1
:104E4000F5847F0022900006EFF0A3EDF0FF7E00D6
:104E50006401700A90000C7410F0A37427F0EF64E2
:104E6000024E700A90000C7411F0A37428F0EF64E5
:104E7000034E700A90000C740DF0A37424F0EF64DC
:104E8000044E700A90000C7412F0A37429F0EF64C1
:104E9000054E700A90000C740FF0A37426F0EF64B6
:104EA000064E700A90000C740EF0A37425F090006A
:104EB00006E0FF90000CE0FD7B017A007908125CAF
:104EC00007900008120B45A804A905AA06AB071213
:104ED0000956900008120BA2900008120B45780F9B
:104EE000120AB5900008120BA2900007E0FF6403BD
:104EF0006018EF64066013A3120B45E47B06FAF911
:104F0000F81209E1900008120BA2900008120B455C
:104F1000900047120BA290000DE0FD900006E0FF0C
:104F2000125C9D22900008120C49E94A70037F022E
:104F300022900008120C29126FC890000BEFF0604D
:104F400003E0FF22900008120C299000021206E2F2
:104F5000FF75F00A84FEC454F0FEEF75F00A84E594
:104F6000F04E90000CF09000011206E2FF75F00A7E
:104F700084FEC454F0FEEF75F00A84E5F04E900014
:104F80000DF01206C9FF75F00A84FEC454F0FEEF5E
:104F900075F00A84E5F04E90000EF07D02E4FF12F9
:104FA000603F90000BEFF060037F012290000CE067
:104FB000FD7F0212603F90000BEFF060037F012243
:104FC00090000DE0FD7F0312603F90000BEFF0605A
:104FD000037F012290000EE0FD7F0412603F9000ED
:104FE0000BEFF060037F0122E4FDFF12603F9000B1
:104FF0000BEFF060037F01227F0022C2AFE4FFEFDE
:10500000C39408748094805025EF25E024AAF5828B
:10501000E43405F583E0FCA3E0FDEF25E0244DF545
:1050200082E43405F583ECF0A3EDF00F80D1D2AF2C
:10503000E4FFEFC3940774809480507EE4FEC37451
:10504000079FFDEEC39D506EEE25E0244FF582E4F0
:105050003405F583E0FCA3E0FDEE25E0244DF58268
:10506000E43405F583E0FAA3E0FBD39DEA9C4043DA
:10507000900000EAF0A3EBF0EE25E0244FF582E487
:105080003405F583E0FCA3E0FDEE25E0244DF58238
:10509000E43405F583ECF0A3EDF0900000E0FCA310
:1050A000E0FDEE25E0244FF582E43405F583ECF0D5
:1050B000A3EDF00E80880F025032C2AF900555E08C
:1050C000FFA3E09005E0CFF0A3EFF0D200D2AF2233
:1050D000900008120C49E94A70037F0222900008F0
:1050E000120C2912599690000BEFF06003E0FF229A
:1050F000900008120C299000021206E2FF75F00AD7
:1051000084FEC454F0FEEF75F00A84E5F04E900082
:105110000CF09000011206E2FF75F00A84FEC45400
:10512000F0FEEF75F00A84E5F04E90000DF01206E7
:10513000C9FF75F00A84FEC454F0FEEF75F00A84CE
:10514000E5F04E90000EF07D02E4FF12603F90000B
:105150000BEFF06003E0FF2290000CE0FD7F0612F1
:10516000603F90000BEFF06003E0FF2290000DE045
:10517000FD7F0712603F90000BEFF06003E0FF221D
:1051800090000EE0FD7F0812603F90000BEFF06092
:1051900003E0FF22E4FDFF12603F90000BEFF022DE
:1051A0009009E9EFF09009EA120C499009E9E0FF53
:1051B0007E00C3EF9404EE64809480500E9009EA60
:1051C000120C29AE02AF01EF4E70037F022290094C
:1051D000E9E0FF7E08EF8EF0A4FFAEF0EF2426FF9B
:1051E000EE3420FEC006C0079009E9E0FF7E08EF1C
:1051F0008EF0A4FFAEF0EF242DFDEE3420FCC004B1
:10520000C0059009E9E0FF7E08EF8EF0A4FFAEF044
:10521000EF2426FDEE3421FC9009E9E0FF7E08EF43
:105220008EF0A4FFAEF0EF242DFFEE3421FE9009A6
:105230008EEEF0A3EFF09009EA120C29900990127B
:105240000C49900993E4F0A37407F0AB05AA04D0CD
:1052500005D004D007D0061231EA9009EDEFF090A6
:1052600009EDE0FF229009F3EFF09009F4120C49E8
:105270009009F3E0FF7E00C3EF9404EE6480948015
:10528000500E9009F4120C29AE02AF01EF4E7003DC
:105290007F02229009F3E0FF7E10EF8EF0A4FFAEB4
:1052A000F0EF246AFFEE3420FEC006C0079009F339
:1052B000E0FF7E10EF8EF0A4FFAEF0EF2479FDEE5C
:1052C0003420FCC004C0059009F3E0FF7E10EF8E8F
:1052D000F0A4FFAEF0EF246AFDEE3421FC9009F358
:1052E000E0FF7E10EF8EF0A4FFAEF0EF2479FFEE2A
:1052F0003421FE90098EEEF0A3EFF09009F4120C29
:1053000029900990120C49900993E4F0A3740FF0CE
:10531000AB05AA04D005D004D007D0061231EA901C
:1053200009F7EFF09009F7E0FF229009F8EFF0900D
:1053300009F9120C499009F8E0FF7E00C3EF9404CC
:10534000EE64809480500E9009F9120C29AE02AFE1
:1053500001EF4E70037F02229009F8E0FF7E10EF0C
:105360008EF0A4FFAEF0EF246AFFEE3420FEC006FC
:10537000C0079009F8E0FF7E10EF8EF0A4FFAEF0BA
:10538000EF2479FDEE3420FCC004C0059009F8E05C
:10539000FF7E10EF8EF0A4FFAEF0EF246AFDEE3436
:1053A00021FC9009F8E0FF7E10EF8EF0A4FFAEF034
:1053B000EF2479FFEE3421FE900274EEF0A3EFF0BB
:1053C0009009F9120C29900276120C49900279E4A6
:1053D000F0A3740FF0AB05AA04D005D004D007D019
:1053E0000612340F9009FCEFF09009FCE0FF2290C8
:1053F00009FDEFF09009FE120C499009FDE0FF7ED7
:1054000000C3EF9404EE64809480500E9009FE1265
:105410000C29AE02AF01EF4E70037F02229009FD0E
:10542000E0FF7E04EF8EF0A4FFAEF0EF24AAFFEEC3
:105430003420FEC006C0079009FDE0FF7E04EF8E19
:10544000F0A4FFAEF0EF24ADFDEE3420FCC004C0AC
:10545000059009FDE0FF7E04EF8EF0A4FFAEF0EFB3
:1054600024AAFDEE3421FC9009FDE0FF7E04EF8EBE
:10547000F0A4FFAEF0EF24ADFFEE3421FE90098ED4
:10548000EEF0A3EFF09009FE120C29900990120C97
:1054900049900993E4F0A37403F0AB05AA04D00586
:1054A000D004D007D0061231EA900A01EFF0900A3A
:1054B00001E0FF22900A02EFF0900A03120C4990DB
:1054C0000A02E0FF7E00C3EF9404EE6480948050F3
:1054D0000E900A03120C29AE02AF01EF4E70037F4B
:1054E0000222900A02E0FF7E04EF8EF0A4FFAEF0ED
:1054F000EF24AAFFEE3420FEC006C007900A02E0A7
:10550000FF7E04EF8EF0A4FFAEF0EF24ADFDEE348D
:1055100020FCC004C005900A02E0FF7E04EF8EF07C
:10552000A4FFAEF0EF24AAFDEE3421FC900A02E0C5
:10553000FF7E04EF8EF0A4FFAEF0EF24ADFFEE345B
:1055400021FE900274EEF0A3EFF0900A03120C29F2
:10555000900276120C49900279E4F0A37403F0AB48
:1055600005AA04D005D004D007D00612340F900A43
:1055700006EFF0900A06E0FF22C0E0C083C082C0C0
:10558000D075D000C006C007AF847584003098562F
:10559000C298AE9990026CE064017026900269E0B6
:1055A000C39420748094805019E02449F582E43437
:1055B00001F583EEF0900269E004F0900148E4F018
:1055C000802490026CE0701E04F0900269E4F0E028
:1055D0002449F582E43401F583EEF0900269E00499
:1055E000F0900148E4F030993BC29990026DE0647C
:1055F00001703190026BE004F090026AE0FEA3E0DB
:10560000C39E500FE02469F582E43401F583E0F590
:10561000998011C28790026DE4F090026BF09002C5
:105620006AF0D2038F84D007D006D0D0D082D08346
:10563000D0E0329009EEEFF09009EF120C4990099A
:10564000EF120C29AE02AF01EF4E70037F022290E1
:1056500009EEE0FF7E08EF8EF0A4FFAEF0EF242607
:10566000FFEE3420FEC006C0079009EEE0FF7E0882
:10567000EF8EF0A4FFAEF0EF242DFDEE3420FCC041
:1056800004C0059009EEE0FF7E08EF8EF0A4FFAEA7
:10569000F0EF2426FDEE3421FC9009EEE0FF7E08B9
:1056A000EF8EF0A4FFAEF0EF242DFFEE3421FE903C
:1056B0000274EEF0A3EFF09009EF120C299002763D
:1056C000120C49900279E4F0A37407F0AB05AA0428
:1056D000D005D004D007D00612340F9009F2EFF0B5
:1056E0009009F2E0FF22E4900957F0A3F0FFEFC326
:1056F0009406748094805058EF75F00BA42411F533
:1057000082E43409F583E4F0A37432F0EF75F00B12
:10571000A4240EF582E43409F5837401F0EF75F0EA
:105720000BA42413F582E43409F583E4F0EF75F05B
:105730000BA42414F582E43409F583E4F0EF75F04A
:105740000BA42415F582E43409F583E4F00F809E60
:105750009009147432F090091FF07BFF7A7379532B
:1057600090090B120C497A737903900916120C49AF
:105770007A737913900921120C497A73792390096D
:105780002C120C497A737933900937120C497A73C9
:105790007943900942120C4922900011EFF0A312B4
:1057A0000C49900016E584F0E4F5841264E0900062
:1057B00015EFF06007A3E0F5847F01227FD0125F30
:1057C000C3900015EFF0600C1270C5900016E0F564
:1057D000847F0122900011E0FF126134900015EFE8
:1057E000F0600C1270C5900016E0F5847F01221263
:1057F0006534900015EFF0600C1270C5900016E053
:10580000F5847F01227FD1125FC3900015EFF06015
:105810000C1270C5900016E0F5847F0122900012F2
:10582000120C29E4FF125EC9900015EFF0600C1213
:1058300070C5900016E0F5847F01221270C59000BB
:1058400016E0F5847F0022C0E0C0F0C083C082C0B3
:10585000D075D000C000C001C002C003C004C005A4
:10586000C006C007AF84758400758CB8758A00C205
:105870008D8F84900A75120B45E47B01FAF9F812BA
:10588000093B900A75120BA21273A912019490029F
:105890006CE064017025900148E0C3940474809426
:1058A000805018E004F0E0C3940474809480400BAE
:1058B00090026C7402F0900148E4F0300517900AF1
:1058C00094E0D3940074809480400AE014F0E07077
:1058D00004D2B6C205D007D006D005D004D003D07C
:1058E00002D001D000D0D0D082D083D0F0D0E0322E
:1058F0009009D7EFF09009D8120C499009D8120CF2
:1059000029AE02AF01EF4E70037F02229009D7E06B
:10591000FF7E00C3EF9401EE6480948040129009F2
:10592000D7E0FF7E00D3EF9404EE648094804003C0
:105930007F05229009D7E0FFEF14FF9009DCEFF01C
:105940009009DCE0FF7E0CEF8EF0A4FFAEF0EF24B8
:10595000F4FFEE342CFE9009D8120C2990012DE4AE
:10596000F0A3740CF01247A09009DBEFF09009DB74
:10597000E0FF7E00EF64084E60069009DBE0FF2246
:105980009009D8120C2912083FFFAEF0EF4E7003B9
:105990007F09227F082290000F741FF090000112EF
:1059A00006E2FF7E00C3940174809480400AD3EF26
:1059B000940C7480948040037F01229000021206B0
:1059C000E2C394017480948050037F01229000010F
:1059D0001206E224FC602B24FE602724FD602324B1
:1059E000FE601F240970231206C9FF5403700BEFD9
:1059F000600890000F741DF0801690000F741CF06A
:105A0000800E90000F741EF0800690000F741FF03F
:105A10009000021206E2FF90000FE0FEEFD39E40DE
:105A2000037F01221206C9D39463748094804003DB
:105A30007F01227F002290000A120C49E94A70037C
:105A40007F02227D01E4FF12603F90000DEFF07BAA
:105A5000017A00790E7F0612579990000DEFF07BC6
:105A6000017A00790F7F0712579990000DEFF07BB4
:105A7000017A0079107F0812579990000DEFF0E439
:105A8000FDFF12603F90000DEFF0A3E0FEC4540F45
:105A900075F00AA4FDEE540F2DFE90000A120C2999
:105AA000900002EE12075490000FE0FEC4540F75F0
:105AB000F00AA4FDEE540F2D90000112075490003F
:105AC00010E0FEC4540F75F00AA4FDEE540F2D1221
