:020000040001F9
:10000000023F608F993099FDC2992202461BAF844E
:1000100075840F758C67E58C30E7FB7597018F84CD
:0100200022BD
:070023000243E475FFFF2218
:10002B00024FDE900BF8120B3F900BF8120B1F12C6
:10003B0005BFFFEF04FFEF75F06484AFF0900BF892
:10004B00120B1FEF120638900BF8120B1F900A2C95
:10005B00E4F0A37401F07F027E201231E9900BFBD8
:0F006B00EFF0900BFBE0FF2202550A75FFA52274
:10007B000232EF900A61120B3FAE0730020A900A70
:10008B0061120B1FE94A70037F0522EE6003D380D8
:10009B0001C392C2C2C37F107E277D007C00125227
:1000AB0035EF6011900C1A7402F012525AC2029082
:1000BB000C1AE0FF22AFC1EF64506007AFC1EF64D1
:1000CB0058700E900A61120B1FE5C21206387F00A2
:1000DB0022AFC1EF64387008900C1A7403F08006DD
:1000EB00900C1A7406F012525AC202900C1AE0FFCE
:1000FB0022123AF022C0087401C0E0C082C083759E
:10010B00080A75B10022C0087401C0E0C082C08328
:10011B0075081B75B11122C0087401C0E0C082C004
:10012B008375082C75B12222C0087401C0E0C0820F
:10013B00C08375083D75B1332290FBFC211190E60D
:10014B0014211190931821229095AB2122909D2E72
:10015B002122908757212290A0F72122908C2821D1
:10016B00229080002122909075212290DC792133FE
:10017B0090DF9F213390DFAC213390D24921339014
:10018B00D8B5213390DA06213390D742213390DB57
:10019B0057213390D599213390DD4C213390DDF5E8
:1001AB00213390A306212290A313212200EC4D6052
:1001BB0011E8497017ED33EC3304600DE4FCFFFEDE
:1001CB00FD22E933E8330470F802049212045D58FF
:1001DB00046009E4CC2481500628500902049C28B1
:1001EB004003020499C0E0EB4A7044B98006D0E0AA
:1001FB00FB020488EF4E701CBD8008EBFFEAFEE9A2
:10020B00FD80EBE98DF0A4FEE5F00202A1E9CDF94A
:10021B00EAFEEBFFEF89F0A4FCE5F0CE89F0A42E0B
:10022B00FFE435F0CD89F0A42DFEE435F08067EFC7
:10023B004E7005BD80D780C3EF8BF0A4ACF0EE8B76
:10024B00F0A42CFCE435F0F8EF8AF0A42CE5F038A0
:10025B00FCE433CB8DF0A42CFCE5F03BF8EE8AF0FC
:10026B00A42CFCE5F038F8E433CF89F0A42CFCE5A2
:10027B00F038CF3400CE89F0A42FFFE5F03EFEE43A
:10028B0033C98DF0A42EFEE5F039CD8AF0A42FFFF3
:10029B00E5F03EFEE43DFD33D0E0FB50070BBB0029
:1002AB000F02049CEC2CFCEF33FFEE33FEED33FD21
:1002BB0002047402049CEC5D046005E859047003AD
:1002CB0002049212045D580460F6EC4860F2EC7084
:1002DB0004FDFEFF22C860DB2481C85009C398606F
:1002EB000250060204999850CAF582E9294B4A70CC
:1002FB0005AB8202048875F0007C1A7880C3EF9BF3
:10030B00EE9AED99400DC3EF9BFFEE9AFEED99FD32
:10031B00E842F0DC23ACF0D0E0FFD0E0FED0E0FD13
:10032B00AB8220E7101BEB60BAEC2CFCEF33FFEE3B
:10033B0033FEED33FD020474E803F830E705C0F03B
:10034B0075F000EF2FFFEE33FEED33FD40B830E7D5
:10035B00C280AA74F8CC6480CCC86480C8F58204CF
:10036B00604FC3EB9FF5F0EA9E42F0E99D42F0E847
:10037B009C45F0603C501DE5825FFFE582D313CBBB
:10038B005BCBF42B5582FB50280ABA002409B90029
:10039B002008801DE5825BFBE582D313CF5FCFF492
:1003AB00C3132F5582FF50090EBE00050DBD000172
:1003BB000CC3EB9FF5F0EA9E42F0E99D42F0E89CFE
:1003CB0045F06007CC4820E701B3EC22ED33EC336A
:1003DB00600A047003BD8004ECB2E7FC2275F020C8
:1003EB00800E75F010800575F0087D007E007F0093
:1003FB003392D530D503120976EC334010EF33FF2F
:10040B00EE33FEED33FDEC33FCD5F0ED22E5F024BD
:10041B007EA2D513CC92E7CDCEFF22EDD2E7CD3322
:10042B00EC3392D524814006E4FFFEFDFC22FCE474
:10043B00CFCECDCC24E0501174FF80EDC3CC13CCC8
:10044B00CD13CDCE13CECF13CF0470F030D5DE024B
:10045B000976E9D2E7C933E833F892D5EDD2E7CD87
:10046B0033EC33FC5002B2D522EC30E7100FBF0057
:10047B000C0EBE00080DBD00040BEB6014A2D5EBF7
:10048B0013FCED92E7FD2274FFFCFDFEFF22E480DE
:10049B00F8A2D574FF13FC7D80E480EFE709F60822
:1004AB00DFFA8046E709F208DFFA803E88828C8308
:1004BB00E709F0A3DFFA8032E309F608DFFA807868
:1004CB00E309F208DFFA807088828C83E309F0A3DA
:1004DB00DFFA806489828A83E0A3F608DFFA80580A
:1004EB0089828A83E0A3F208DFFA804C80D280FAFB
:1004FB0080C680D4806980F28033801080A680EA29
:10050B00809A80A880DA80E280CA803389828A83CD
:10051B00ECFAE493A3C8C582C8CCC583CCF0A3C8BE
:10052B00C582C8CCC583CCDFE9DEE7800D89828A22
:10053B0083E493A3F608DFF9ECFAA9F0EDFB22892B
:10054B00828A83ECFAE0A3C8C582C8CCC583CCF001
:10055B00A3C8C582C8CCC583CCDFEADEE880DB89C3
:10056B00828A83E493A3F208DFF980CC88F0EF60F2
:10057B00010E4E60C388F0ED2402B4040050B9F5AF
:10058B0082EB2402B4040050AF2323458223900452
:10059B00F773C2D530F707B2D563F0FF05F030E73C
:1005AB000CB2D5F4048463F0FF05F080018430D5E0
:1005BB0002F40422BB010689828A83E0225002E7FF
:1005CB0022BBFE02E32289828A83E49322BB010CC5
:1005DB00E58229F582E5833AF583E0225006E92589
:1005EB0082F8E622BBFE06E92582F8E222E58229A3
:1005FB00F582E5833AF583E49322BB010FF8E5829C
:10060B0029F582E5833AF583E028F0225009C5826B
:10061B0029F8E58226F622BBFE09C58229F8E225D8
:10062B0082F222F8EA2583F583E9932822BB01069F
:10063B0089828A83F0225002F722BBFE01F322F853
:10064B00BB010DE58229F582E5833AF583E8F022BB
:10065B005006E92582C8F622BBFE05E92582C8F2C1
:10066B0022EF8DF0A4A8F0CF8CF0A428CE8DF0A4AF
:10067B002EFE22BC000BBE0029EF8DF084FFADF0E7
:10068B0022E4CCF875F008EF2FFFEE33FEEC33FCD1
:10069B00EE9DEC984005FCEE9DFE0FD5F0E9E4CE07
:1006AB00FD22EDF8F5F0EE8420D21CFEADF075F0D6
:1006BB0008EF2FFFED33FD4007985006D5F0F222DF
:1006CB00C398FD0FD5F0EA22C2D5EC30E709B2D5BD
:1006DB00E4C39DFDE49CFCEE30E715B2D5E4C39F6B
:1006EB00FFE49EFE12067EC3E49DFDE49CFC8003AA
:1006FB0012067E30D507C3E49FFFE49EFE22C5F0B1
:10070B00F8A3E028F0C5F0F8E58215827002158396
:10071B00E038F022A3F8E0C5F025F0F0E582158271
:10072B0070021583E0C838F0E822BB010A89828A7F
:10073B0083E0F5F0A3E022500687F009E71922BB0E
:10074B00FE07E3F5F009E3192289828A83E493F526
:10075B00F074019322BB0110E58229F582E5833AFF
:10076B00F583E0F5F0A3E0225009E92582F886F045
:10077B0008E622BBFE0AE92582F8E2F5F008E22240
:10078B00E5832AF583E993F5F0A3E99322BB010DE9
:10079B00C58229C582C5833AC5830207095011C595
:1007AB008229F808E5F026F618F5F0E58236F622F0
:1007BB00BBFE11C58229F808E225F0F5F0F218E22C
:1007CB003582F222F8E58229F582E5832AF58374D6
:1007DB00019325F0F5F0E4933822BB010A89828A54
:1007EB0083F0E5F0A3F0225006F709A7F01922BB1E
:1007FB00FE06F3E5F009F31922F8BB0111E5822996
:10080B00F582E5833AF583E8F0E5F0A3F022500991
:10081B00E92582C8F608A6F022BBFE09E92582C8A5
:10082B00F2E5F008F222EF2BFFEE3AFEED39FDEC8C
:10083B0038FC22C3EF9BFFEE9AFEED99FDEC98FC82
:10084B0022E88FF0A4CC8BF0A42CFCE98EF0A42C26
:10085B00FC8AF0EDA42CFCEA8EF0A4CDA8F08BF072
:10086B00A42DCC3825F0FDE98FF0A42CCD35F0FC70
:10087B00EB8EF0A4FEA9F0EB8FF0A4CFC5F02ECD3C
:10088B0039FEE43CFCEAA42DCE35F0FDE43CFC2221
:10089B0075F008758200EF2FFFEE33FECD33CDCC14
:1008AB0033CCC58233C5829BED9AEC99E582984097
:1008BB000CF582EE9BFEED9AFDEC99FC0FD5F0D674
:1008CB00E4CEFBE4CDFAE4CCF9A88222B800C1B99E
:1008DB000059BA002DEC8BF084CFCECDFCE5F0CBDC
:1008EB00F97818EF2FFFEE33FEED33FDEC33FCEB15
:1008FB0033FB10D703994004EB99FB0FD8E5E4F9D0
:10090B00FA227818EF2FFFEE33FEED33FDEC33FCBC
:10091B00C933C910D7059BE99A4007EC9BFCE99AB0
:10092B00F90FD8E0E4C9FAE4CCFB2275F010EF2FF5
:10093B00FFEE33FEED33FDCC33CCC833C810D707F5
:10094B009BEC9AE899400AED9BFDEC9AFCE899F830
:10095B000FD5F0DAE4CDFBE4CCFAE4C8F922EF4B87
:10096B00FFEE4AFEED49FDEC48FC22C3E49FFFE499
:10097B009EFEE49DFDE49CFC22EB9FF5F0EA9E427B
:10098B00F0E99D42F0EC6480C864809845F022EB5E
:10099B009FF5F0EA9E42F0E99D42F0E89C45F0227B
:1009AB00E8600FECC313FCED13FDEE13FEEF13FF2A
:1009BB00D8F122E8600FEFC333FFEE33FEED33FDCA
:1009CB00EC33FCD8F122BB010789828A83020A3BF4
:1009DB005005E9F8020DA3BBFE05E9F8020DAF893E
:1009EB00828A83020A47BB010DE58229F582E583E2
:1009FB003AF583020A3B5007E92582F8020DA3BBA7
:100A0B00FE07E92582F8020DAFE58229F582E58321
:100A1B003AF583020A47BB010789828A83020A9847
:100A2B005005E9F8020DBBBBFE05E9F8020DC72224
:100A3B00E0FCA3E0FDA3E0FEA3E0FF22E493FC7443
:100A4B000193FD740293FE740393FF22E0F8A3E07D
:100A5B00F9A3E0FAA3E0FB227401FF3395E0FEFD5E
:100A6B00FCA3A3A3E0CF2FF0E582158270021583C0
:100A7B00E0CE3EF0E582158270021583E0CD3DF0AD
:100A8B00E582158270021583E0CC3CF022ECF0A3DA
:100A9B00EDF0A3EEF0A3EFF022A8828583F0D083D4
:100AAB00D082120ABB120ABB120ABB120ABBE47336
:100ABB00E493A3C583C5F0C583C8C582C8F0A3C59D
:100ACB0083C5F0C583C8C582C822BB010789828A4A
:100ADB0083020AA45005E9F8020DD3BBFE05E9F821
:100AEB00020DEC22BB010DE58229F582E5833AF577
:100AFB0083020AA45007E92582F8020DD3BBFE0737
:100B0B00E92582F8020DEC22A42582F582E5F03569
:100B1B0083F58322E0FBA3E0FAA3E0F922F8E0FBE4
:100B2B00A3A3E0F925F0F0E582158270021583E0AE
:100B3B00FA38F022EBF0A3EAF0A3E9F022E493FBFE
:100B4B00740193FA740293F922BB010789828A8399
:100B5B00020B1F5005E9F8020E05BBFE05E9F80272
:100B6B000E0E89828A83020B48D083D082F8E493DD
:100B7B007012740193700DA3A393F8740193F58213
:100B8B008883E4737402936860EFA3A3A380DF8A66
:100B9B00838982E473EC8EF0A4CCC5F0CCCDF8EF56
:100BAB00A4CEC5F02DFDE43CFCE8A42EC8C5F03D59
:100BBB00FDE43CFCEFA4FFE5F028FEE43DFDE43C46
:100BCB00FC22E3F5F009E208B5F06BDFF58067E393
:100BDB00F5F009E608B5F05EDFF5805A87F009E617
:100BEB0008B5F052DFF6804E87F009E208B5F04603
:100BFB00DFF6804288828C8387F009E0A3B5F0365C
:100C0B00DFF6803288828C8387F009E493A3B5F0FA
:100C1B0025DFF5802188828C83E3F5F009E0A3B50D
:100C2B00F014DFF5801088828C83E3F5F009E493F0
:100C3B00A3B5F002DFF4020CFC808780E980908082
:100C4B00D4803E8015806E807E809D80B7808D80A5
:100C5B00A380518074803C020D0889828A83ECFA50
:100C6B00E493F5F0A3C8C582C8CCC583CCE493A3A9
:100C7B00C8C582C8CCC583CCB5F076DFE3DEE18096
:100C8B007089828A83E493F5F0A3E208B5F062DF02
:100C9B00F4805E89828A83E0F5F0A3E608B5F05113
:100CAB00DFF5804D89828A83E0F5F0A3E208B5F089
:100CBB0040DFF5803C89828A83E493F5F0A3E60854
:100CCB00B5F02EDFF4802A8002805789828A83EC6C
:100CDB00FAE493F5F0A3C8C582C8CCC583CCE0A3D6
:100CEB00C8C582C8CCC583CCB5F006DFE4DEE28094
:100CFB00007FFFB5F0020F2240027F012289828A1A
:100D0B0083ECFAE0F5F0A3C8C582C8CCC583CCE070
:100D1B00A3C8C582C8CCC583CCB5F0D5DFE5DEE36F
:100D2B0080CF89828A83ECFAE0F5F0A3C8C582C82C
:100D3B00CCC583CCE493A3C8C582C8CCC583CCB542
:100D4B00F0AFDFE4DEE280A988F0EF60010E4E60C9
:100D5B00ABED2402B404005098F582EB2402B404EA
:100D6B0000508E2323458223900C4473EF4E601268
:100D7B00EF60010EEDBB010B89828A83F0A3DFFCD0
:100D8B00DEFA2289F05007F709DFFCA9F022BBFE3F
:100D9B00FCF309DFFCA9F022E6FC08E6FD08E6FE01
:100DAB0008E6FF22E2FC08E2FD08E2FE08E2FF2271
:100DBB00ECF608EDF608EEF608EFF622ECF208ED8D
:100DCB00F208EEF208EFF222D083D082E493F60819
:100DDB00740193F608740293F608740393F6740483
:100DEB0073D083D082E493F208740193F2087402F7
:100DFB0093F208740393F2740473E6FB08E6FA08A3
:100E0B00E6F922E2FB08E2FA08E2F922900A24EF63
:100E1B00F0E4900A43F0FF1252C5EF900A43F090B2
:100E2B000A24E0FFC39403748094805008900A5402
:100E3B007414F08006900A547414F0900A43E0FE88
:100E4B00C006900A54E0FD90093DE4F0A3EDF07B61
:100E5B00017A0A7944A3120B3F7A0A794890094226
:100E6B00120B3F7A0A79251218CDD0E04F900A4326
:100E7B00F0900A54E0C394037480948040030212F0
:100E8B00BC900A43E0FEC006900A57120AA4000069
:100E9B00005A900A24E0FF7DC9122FB6D0E04F9084
:100EAB000A43F0E0FEC006900A57120AA40000A8FD
:100EBB007E900A24E0FF7D01122FB6D0E04F900AFE
:100ECB0043F0E0FEC006900A57120AA4000000008F
:100EDB00900A24E0FF7D70122FB6D0E04F900A43AA
:100EEB00F0E0FEC006900A57120AA4000009049015
:100EFB000A24E0FF7D03122FB6D0E04F900A43F097
:100F0B00E0FEC006900A57120AA40000000D900ADA
:100F1B0024E0FF7D30122FB6D0E04F900A43F0E073
:100F2B00FEC006900A57120AA400003C27900A2420
:100F3B00E0FF7D31122FB6D0E04F900A43F0E0FE78
:100F4B00C006900A57120AA400000000900A24E081
:100F5B00FF7D02122FB6D0E04F900A43F0E0FEC0A7
:100F6B0006900A57120AA40000002C900A24E0FFF6
:100F7B007D1E122FB6D0E04F900A43F0E0FEC00664
:100F8B00900A57120AA40000FF00900A24E0FF7D8C
:100F9B006D122FB6D0E04F900A43F0E0FEC00690E2
:100FAB000A57120AA400000DB8900A24E0FF7D6EC8
:100FBB00122FB6D0E04F900A43F0E0FEC006900A25
:100FCB0057120AA40000D1DA900A24E0FF7D6F12B9
:100FDB002FB6D0E04F900A43F0E0FEC006900A25F2
:100FEB00E0FEA3E0FDEEEDFFE4FCFD900A69120AC2
:100FFB0098900A24E0FF7D6A122E8FD0E04F900A62
:10100B0043F0E0FEC006900A27E0FEA3E0FDEEED04
:10101B00FFE4FCFD900A69120A98900A24E0FF7D18
:10102B0024122E8FD0E04F900A43F0E0FEC00690C2
:10103B000A29E0FEA3E0FDEEEDFFE4FCFD900A695A
:10104B00120A98900A24E0FF7D25122E8FD0E04FD4
:10105B00900A43F0E0FEC006900A2BE0FEA3E0FDF1
:10106B00EEEDFFE4FCFD900A69120A98900A24E069
:10107B00FF7D26122E8FD0E04F900A43F0E0FEC08A
:10108B0006900A2DE0FEA3E0FDEEEDFFE4FCFD90E3
:10109B000A69120A98900A24E0FF7D27122E8FD03E
:1010AB00E04F900A43F0E0FEC006900A2FE0FEA34B
:1010BB00E0FDEEEDFFE4FCFD900A69120A98900A40
:1010CB0024E0FF7D28122E8FD0E04F900A43F0E0F2
:1010DB00FEC006900A31E0FEA3E0FDEEEDFFE4FC5E
:1010EB00FD900A69120A98900A24E0FF7D29122EBE
:1010FB008FD0E04F900A43F0E0FEC006900A33E039
:10110B00FEA3E0FDEEEDFFE4FCFD900A69120A98E8
:10111B00900A24E0FF7D17122E8FD0E04F900A43E8
:10112B00F0E0FEC006900A35E0FEA3E0FDEEEDFF19
:10113B00E4FCFD900A69120A98900A24E0FF7D18DE
:10114B00122E8FD0E04F900A43F0E0FEC006900ABB
:10115B0037E0FEA3E0FDEEEDFFE4FCFD900A691223
:10116B000A98900A24E0FF7D19122E8FD0E04F9041
:10117B000A43F0E0FEC006900A39E0FEA3E0FDEE64
:10118B00EDFFE4FCFD900A69120A98900A24E0FF37
:10119B007D1A122E8FD0E04F900A43F0E0FEC0066E
:1011AB00900A3BE0FEA3E0FDEEEDFFE4FCFD900AB0
:1011BB0069120A98900A24E0FF7D1B122E8FD0E053
:1011CB004F900A43F0E0FEC006900A3DE0FEA3E01C
:1011DB00FDEEEDFFE4FCFD900A69120A98900A24DB
:1011EB00E0FF7D1C122E8FD0E04F900A43F0E0FE03
:1011FB00C006900A57120AA400000001900A24E0CE
:10120B00FF7DC9122FB6D0E04F900A43F0E0FEC02D
:10121B0006900A57120AA40000005A900A24E0FF15
:10122B007DC6122FB6D0E04F900A43F0E0FEC00609
:10123B00900A24E0FF7B017A0A794C7D3E122D4BFC
:10124B00D0E04F900A43F0E0FEC006900A24E0FF86
:10125B007B017A0A79507D5E122D4BD0E04F900ABC
:10126B0043F0E0FEC006900A57120AA400000001EA
:10127B00900A24E0FF7DC6122FB6D0E04F900A43B0
:10128B00F0A3120A3B900A4C120A57C312099A7028
:10129B0003021428900A48120A3B900A50120A576C
:1012AB00C312099A7003021428900A43E04410FFFA
:1012BB0022900A43E0FEC006900A57120AA40000CF
:1012CB005883900A24E0FF7D30122FB6D0E04F9068
:1012DB000A43F0E0FEC006900A57120AA400000071
:1012EB00BC900A24E0FF7D32122FB6D0E04F900A5B
:1012FB0043F0E0FEC006900A57120AA4000020003B
:10130B00900A24E0FF7D40122FB6D0E04F900A43A5
:10131B00F0E0FEC006900A57120AA40000003B90B2
:10132B000A24E0FF7D41122FB6D0E04F900A43F024
:10133B00E0FEC006900A57120AA40000007E900A35
:10134B0024E0FF7D42122FB6D0E04F900A43F0E02D
:10135B00FEC006900A57120AA40000003B900A2414
:10136B00E0FF7D43122FB6D0E04F900A43F0E0FE32
:10137B00C006900A57120AA400000000900A24E04D
:10138B00FF7D59122FB6D0E04F900A43F0E0FEC01C
:10139B0006900A57120AA4000000A6900A24E0FF48
:1013AB007D32122FB6D0E04F900A43F0E0FEC0061C
:1013BB00900A57120AA400000040900A24E0FF7D17
:1013CB0061122FB6D0E04F900A43F0E0FEC00690BA
:1013DB000A57120AA400000000900A24E0FF7D3295
:1013EB00122FB6D0E04F900A43F0E0FEC006900AF1
:1013FB0024E0FF7B017A0A794C7D18122D4BD0E04B
:10140B004F900A43F0A3120A3B900A4C120A57C39F
:10141B0012099A6008900A43E04410FF227F0022D1
:10142B00900B20EFF0FBE4A3F0A3120AA400000042
:10143B0000900B26120AA400000000900B2A120A3F
:10144B00A400000000EBFF3395E0FE7C007D34121E
:10145B00066C74592FF974073EFA7B01900B2E1210
:10146B000B3F900B20E0120638900B2E120B1F90A7
:10147B000003E412064A900B20E0FF3395E0FEC315
:10148B00EF9401EE6480948050030218CCD3EF9458
:10149B0004EE6480948040030218CCC3EF9402EEF8
:1014AB00648094804003021723900001E412064AE3
:1014BB00900B21E0FEC006900B20E0FF7B017A0B26
:1014CB0079267D3E122D4BD0E04F900B21F060160C
:1014DB00900B2E120B1FE92402F9E43AFA1205BF06
:1014EB00440112063822900B21E0FEC006900B201F
:1014FB00E0FF7B017A0B792A7D5E122D4BD0E04FFA
:10150B00900B21F06016900B2E120B1FE92402F9A1
:10151B00E43AFA1205BF440112063822900B2E1240
:10152B000B1F9000041209F1900B26120A57C312DD
:10153B00099A7018900B2E120B1F9000081209F1CC
:10154B00900B2A120A57C312099A6016900B2E128F
:10155B000B1FE92402F9E43AFA1205BF4402120602
:10156B003822900B21E0FEC006900B20E0FF7B01A0
:10157B007A0B79227D1B122D4BD0E04F900B21F073
:10158B006016900B2E120B1FE92402F9E43AFA12A3
:10159B0005BF440112063822900B2E120B1FE924B3
:1015AB0002F9E43AFA1205BFE4120638900B221244
:1015BB000A3BEF5401FFE4FEFDFCEF6015900B2E90
:1015CB00120B1FE92402F9E43AFA1205BF44021286
:1015DB000638900B22120A3BEF5402FFE4FEFDFC8F
:1015EB00EF70030218CC900B2E120B1F90001412ED
:1015FB000AEF00000000900018120AEF0000000034
:10160B0090001C120AEF00000000900020120AEF5D
:10161B0000000000900024120AEF00000000900070
:10162B0028120AEF00000000900B21E0FEC006908C
:10163B000B20E0FFE92414F9E43AFA7D0D122D4B4F
:10164B00D0E04F900B21F0E0FEC006900B20E0FFA6
:10165B00900B2E120B1FE92418F9E43AFA7D0E12A7
:10166B002D4BD0E04F900B21F0E0FEC006900B20ED
:10167B00E0FF900B2E120B1FE9241CF9E43AFA7DC4
:10168B000F122D4BD0E04F900B21F0E0FEC00690D7
:10169B000B20E0FF900B2E120B1FE92420F9E43AEC
:1016AB00FA7D10122D4BD0E04F900B21F0E0FEC0D5
:1016BB0006900B20E0FF900B2E120B1FE92424F950
:1016CB00E43AFA7D11122D4BD0E04F900B21F0E054
:1016DB00FEC006900B20E0FF900B2E120B1FE9248F
:1016EB0028F9E43AFA7D12122D4BD0E04F900B21E2
:1016FB00F06016900B2E120B1FE92402F9E43AFA54
:10170B001205BF440112063822900B2E120B1F90AC
:10171B000003740112064A22900B2E120B1F90002D
:10172B0001740112064A900B21E0FEC006900B20BB
:10173B00E0FF7B017A0B79267D3E122D4BD0E04FDB
:10174B00900B21F06016900B2E120B1FE92402F95F
:10175B00E43AFA1205BF440112063822900B2E12FE
:10176B000B1F9000041209F1900B26120A57C3129B
:10177B00099A6016900B2E120B1FE92402F9E43A1A
:10178B00FA1205BF440212063822900B21E0FEC06C
:10179B0006900B20E0FF7B017A0B79227D31122D15
:1017AB004BD0E04F900B21F06016900B2E120B1FBD
:1017BB00E92402F9E43AFA1205BF44011206382271
:1017CB00900B2E120B1FE92402F9E43AFA1205BF13
:1017DB00E4120638900B22120A3BEF5480FFE4FE12
:1017EB00FDFCEF70030218CC900B2E120B1F900018
:1017FB0014120AEF00000000900020120AEF000004
:10180B00000090002C120AEF000000009000301234
:10181B000AEF00000000900B21E0FEC006900B20A9
:10182B00E0FFE92420F9E43AFA7D06122D4BD0E0D3
:10183B004F900B21F0E0FEC006900B20E0FF900BC9
:10184B002E120B1FE92414F9E43AFA7D08122D4BE2
:10185B00D0E04F900B21F0E0FEC006900B20E0FF94
:10186B00900B2E120B1FE9242CF9E43AFA7D0A1285
:10187B002D4BD0E04F900B21F0E0FEC006900B20DB
:10188B00E0FF900B2E120B1FE92430F9E43AFA7D9E
:10189B000B122D4BD0E04F900B21F06016900B2EBE
:1018AB00120B1FE92402F9E43AFA1205BF440112A4
:1018BB00063822900B2E120B1F9000037401120698
:1018CB004A22900939EFF090093A120B3F900945E3
:1018DB00E4F0A3E4F0900947E4F0A3E4F07BFF7A93
:1018EB005D7970C003C002C0017B017A097949A8F8
:1018FB0001AC02AD03D001D002D0037E007F641295
:10190B00057790093A120B1FAE02AF01EF4E602D17
:10191B0090093F120B1FAE02AF01EF4E601F9009F3
:10192B0042120B1FAE02AF01EF4E601190093DE06A
:10193B00FEA3E0FFC3EF9407EE940050037F052254
:10194B00900939E0FFEF120B741964011979021930
:10195B008E0319A304000019B6900945E4F0A37493
:10196B0003F09009477410F0A37403F0803D9009C5
:10197B0045E4F0A37417F09009477410F0A37417A3
:10198B00F08028900945E4F0A3742BF0900947747C
:10199B0010F0A3742BF08013900945E4F0A3743F6F
:1019AB00F09009477410F0A3743FF090093DE0FEEE
:1019BB00A3E0FFD3EF9464EE940040037F052290E5
:1019CB000945E0FEA3E0FF7B017A09794990093DC7
:1019DB00E0FCA3E0FD900A5AECF0A3EDF0122C070B
:1019EB007E00EF4E6003021B0E7B017A0979499052
:1019FB00093DE0FEA3E0FFEF24FFFDEE34FFFC12F8
:101A0B0001629009ADEFF090093DE0FEA3E0FF7499
:101A1B00482FF58274093EF583E0FF9009AEEFF095
:101A2B009009AEE0FF9009ADE0FEEE6F6003021B84
:101A3B000E90093DE0FEA3E0FF74432FF58274097D
:101A4B003EF583E0FF7F0090093DE0FCA3E0FD74D1
:101A5B00422DF58274093CF583E0FE7E00EE4FFFCC
:101A6B0090093DE0FCA3E0FD74442DF58274093C24
:101A7B00F583E0FEEF4EFFE4FCFDFE90093F120BF9
:101A8B001F120A2190093DE0FEA3E0FF74462FF5DB
:101A9B008274093EF583E0FF7F0090093DE0FCA3D3
:101AAB00E0FD74452DF58274093CF583E0FE7E0064
:101ABB00EE4FFF90093DE0FCA3E0FD74472DF5824E
:101ACB0074093CF583E0FEEF4EFFE4FCFDFE90094C
:101ADB0042120B1F120A2190093DE0FEA3E0FF7B8F
:101AEB00017A097949C003C002C00190093A120B6F
:101AFB001FA801AC02AD03D001D002D003120577B1
:101B0B007F0022900947E0FEA3E0FF7B017A097971
:101B1B004990093DE0FCA3E0FD900A5AECF0A3EDDF
:101B2B00F0122C077E00EF4E6003021C527B017AF1
:101B3B0009794990093DE0FEA3E0FFEF24FFFDEE9C
:101B4B0034FFFC1201629009ADEFF090093DE0FE0D
:101B5B00A3E0FF74482FF58274093EF583E0FF90F4
:101B6B0009AEEFF09009AEE0FF9009ADE0FEEE6F2D
:101B7B006003021C5290093DE0FEA3E0FF74432F6B
:101B8B00F58274093EF583E0FF7F0090093DE0FC90
:101B9B00A3E0FD74422DF58274093CF583E0FE7ED3
:101BAB0000EE4FFF90093DE0FCA3E0FD74442DF5E2
:101BBB008274093CF583E0FEEF4EFFE4FCFDFE90E2
:101BCB00093F120B1F120A2190093DE0FEA3E0FF13
:101BDB0074462FF58274093EF583E0FF7F00900970
:101BEB003DE0FCA3E0FD74452DF58274093CF583C3
:101BFB00E0FE7E00EE4FFF90093DE0FCA3E0FD749C
:101C0B00472DF58274093CF583E0FEEF4EFFE4FCB3
:101C1B00FDFE900942120B1F120A2190093DE0FEB6
:101C2B00A3E0FF7B017A097949C003C002C0019090
:101C3B00093A120B1FA801AC02AD03D001D002D0A0
:101C4B00031205777F0022900945E0FEA3E0FF7B9E
:101C5B00017A09794990093DE0FCA3E0FD900A5A0D
:101C6B00ECF0A3EDF0122C077E00EF4E60047F0129
:101C7B00803E900947E0FEA3E0FF7B017A0979499A
:101C8B0090093DE0FCA3E0FD900A5AECF0A3EDF0C7
:101C9B00122C077E00EF4E60047F018013900939F0
:101CAB00E0FF7E00EF64014E70047F0380027F042F
:101CBB00224408BF000000005008D30000000000C1
:101CCB0000000000000000000000004209050000B9
:101CDB00C1004108E3004108E4004209070000414C
:101CEB0002D600410331004C01D20001000A00640E
:101CFB0003E8271086A04601E40000000000004125
:101D0B0001EA004101EB00410328014102DE0141E0
:101D1B0002EA01410285014102E90044027F000011
:101D2B0000004202830000460B5000000000000040
:101D3B00410B5600C101440C0000000000C10241E0
:101D4B000C1A00410A9100420A8FFFFF410AE02062
:101D5B00410AF92A420AFA006E580AE10000000112
:101D6B000000001000000100000010000001000046
:101D7B00001000004407510000000044075500000C
:101D8B00000044074D0604000060D0075900000016
:101D9B000000000000000000000000000000000038
:101DAB000000000000000000000000000000000028
:101DBB000000000000000000000000000000000018
:101DCB000000000000000000000000000000000008
:101DDB0000000000000000000000000000000000F8
:101DEB0000000000000000000000000000000000E8
:101DFB0000000000000000000000000000000000D8
:101E0B0000000000000000000000000000000000C7
:101E1B0000000000000000000000000000000000B7
:101E2B0000000000000000000000000000000000A7
:101E3B000000000000000000000000000000000097
:101E4B000000000000000000000000000000000087
:101E5B000000000000000000000000000041000036
:101E6B00014401CD000025804101CA004100010061
:101E7B004201CB00004101D10060C801020000000B
:101E8B000000000000000000000000000000000047
:101E9B000000000000000000000000000000000037
:101EAB000000000000000000000000000000000027
:101EBB000000000000000000000000000000000017
:101ECB000000000000000000000000000000000007
:101EDB0000000000000000000000000000000000F7
:101EEB0000000000000000000000000000000000E7
:101EFB0000000000000000000000000000000000D7
:101F0B0000000000000000000000000000000000C6
:101F1B0000000000000000000000000000000000B6
:101F2B0000000000000000000000000000000000A6
:101F3B000000000000000000000000000000000096
:101F4B00000000000000900B0FEEF0A3EFF0900BE1
:101F5B0011ECF0A3EDF0900B13EAF0A3EBF0900B68
:101F6B0017120B1FAE02AF01EF4E70037F022290D0
:101F7B000B1F7402F0900B0FE0FEA3E0FF900B170A
:101F8B00120B1F900B1AE0FCA3E0FD900A5AECF029
:101F9B00A3EDF0122C07900B1EEFF0900B1EE0FF41
:101FAB007E00EF4E602E900B1FE014F0900B1FE0A5
:101FBB00FF7E00D3EF9400EE648094804016800285
:101FCB008012900B1FE0FF7E00D3EF9400EE648035
:101FDB00948050A1900B1EE0FF7E00EF4E7070902E
:101FEB000B1F7402F0900B11E0FEA3E0FF7B017A54
:101FFB000B791C900A5AE4F0A37401F0122C079091
:10200B000B1EEFF0900B1EE0FF7E00EF4E60189062
:10201B000B1FE014F0900B1FE0FF7E00D3EF94003A
:10202B00EE6480948050BE900B1EE0FF7E00EF4E5E
:10203B00701D900B17120B1F900B1AE0FCA3E0FD09
:10204B00120162900B1CE0FEEFB506037F0022909D
:10205B000B1F7402F0900B13E0FEA3E0FF900B1725
:10206B00120B1F900B1AE0FCA3E0FD900A5AECF048
:10207B00A3EDF0122C07900B1EEFF0900B1EE0FF60
:10208B007E00EF4E6018900B1FE014F0900B1FE0DA
:10209B00FF7E00D3EF9400EE6480948050B7900BDA
:1020AB001EE0FF7E00EF4E6003022162900B1F7457
:1020BB0002F0900B15E0FEA3E0FF7B017A0B791D7C
:1020CB00900A5AE4F0A37401F0122C07900B1EEF48
:1020DB00F0900B1EE0FF7E00EF4E6018900B1FE0A0
:1020EB0014F0900B1FE0FF7E00D3EF9400EE6480A2
:1020FB00948050BE900B1EE0FF7E00EF4E70589008
:10210B000B17120B1F900B1AE0FCA3E0FD120162E0
:10211B00900B1DE0FEEF6E703E900B0FE0FEA3E008
:10212B00FF900B17120B1F900B1AE0FCA3E0FD9016
:10213B000A2CECF0A3EDF01231E9900B11E0FEA3A9
:10214B00E0FF7B017A0B791D900A2CE4F0A374015C
:10215B00F01231E97F0322900B1EE0FF7E00EF644B
:10216B00014E70047F0180027F0422900332EEF057
:10217B00A3EFF0900334ECF0A3EDF0900336EAF00C
:10218B00A3EBF09004417401F090033A120B1FAED5
:10219B0002AF01EF4E70037F022290033DE0FEA3DE
:1021AB00E0FFEF4E601190033DE0FEA3E0FFD3EFA5
:1021BB009400EE940140037F052290033A120B1F0B
:1021CB0090033DE0FCA3E0FD12016290033FEFF0B2
:1021DB00900332E0FEA3E0FF90033A120B1F900333
:1021EB003DE0FCA3E0FD900A2CECF0A3EDF01231E6
:1021FB00E9900442EFF0900442E0FFC007900334F3
:10220B00E0FEA3E0FF7B017A03793F900A2CE4F018
:10221B00A37401F01231E9AE07D007EF4EFF900423
:10222B0042EFF07E017F007D007B017A0379401243
:10223B000D77900332E0FEA3E0FF7B017A03794038
:10224B0090033DE0FCA3E0FD900A5AECF0A3EDF007
:10225B00122C0790033DE0FEA3E0FF90033A120B14
:10226B001FC003C002C0017B017A037940A801ACF7
:10227B0002AD03D001D002D003120D53EF3395E022
:10228B00FEEF4E6005900441E4F0900334E0FEA3B2
:10229B00E0FF7B017A047940900A5AE4F0A37401C1
:1022AB00F0122C0790033FE0FF900440E0FEEE6F2E
:1022BB006005900441E4F0900336E0FEA3E0FF904C
:1022CB00033A120B1F90033DE0FCA3E0FD900A2C98
:1022DB00ECF0A3EDF01231E9900338E0FEA3E0FF40
:1022EB007B017A03793F900A2CE4F0A37401F0127E
:1022FB0031E97E017F007D007B017A037940120D6D
:10230B0077900336E0FEA3E0FF7B017A03794090E0
:10231B00033DE0FCA3E0FD900A5AECF0A3EDF012B4
:10232B002C0790033DE0FEA3E0FF90033A120B1F36
:10233B00C003C002C0017B017A037940A801AC0243
:10234B00AD03D001D002D003120D53EF3395E0FE55
:10235B00EF4E6005900441E4F0900338E0FEA3E0FB
:10236B00FF7B017A047940900A5AE4F0A37401F0E0
:10237B00122C0790033FE0FF900440E0FEEE6F60ED
:10238B0005900441E4F07F0022900C16E4F07B01F1
:10239B007A08794512476B900C16EFF0900C16E00B
:1023AB00FFC0077B017A08796812480BAE07D0078C
:1023BB00EF4EFF900C16EFF0900C16E0FFC0077B72
:1023CB00017A0879A91248ABAE07D007EF4EFF9000
:1023DB000C16EFF0900C16E0FFC0077B017A087922
:1023EB005812494BAE07D007EF4EFF900C16EFF08B
:1023FB00900C17E4F0900C17E0FF7E00C3EF9404F1
:10240B00EE64809480503B900C16E0FFC007900C5C
:10241B0017E0FF7E04EF8EF0A4FFAEF074AF2FF940
:10242B0074083EFA7B01900C17E0FF123664AE077E
:10243B00D007EF4EFF900C16EFF0900C17E004F066
:10244B0080B3900C16E0FFC0077B017A0879491224
:10245B0049EBAE07D007EF4EFF900C16EFF0900C48
:10246B0016E0FFC0077B017A08794E124B2BAE07A3
:10247B00D007EF4EFF900C16EFF0900C16E0FFC05C
:10248B00077B017A0879AE124BCBAE07D007EF4E24
:10249B00FF900C16EFF0900C16E0FFC0077B017A53
:1024AB00087957124C6BAE07D007EF4EFF900C1606
:1024BB00EFF0900C16E0FFC0077B017A08795612FB
:1024CB004D0BAE07D007EF4EFF900C16EFF0900CB4
:1024DB0017E4F0900C17E0FF7E00C3EF9404EE645A
:1024EB00809480503B900C16E0FFC007900C17E0D7
:1024FB00FF7E0FEF8EF0A4FFAEF0746D2FF9740812
:10250B003EFA7B01900C17E0FF123729AE07D0077C
:10251B00EF4EFF900C16EFF0900C17E004F080B329
:10252B00900C17E4F0900C17E0FF7E00C3EF9404BF
:10253B00EE64809480503B900C16E0FFC007900C2B
:10254B0017E0FF7E03EF8EF0A4FFAEF074292FF996
:10255B0074083EFA7B01900C17E0FF1238B3AE07FC
:10256B00D007EF4EFF900C16EFF0900C17E004F035
:10257B0080B3900C16E0FFC0077B017A08795412E8
:10258B004DABAE07D007EF4EFF900C16EFF0900C53
:10259B0016E0FF22900B41120B3F900B47120AA43F
:1025AB0000000000900B41120B1F1205BFFF7E00B5
:1025BB00EF24D0FFEE3407FE900B4BEEF0A3EFF0C1
:1025CB00900B4D7407F0A374D0F0900B4BE0FEA36F
:1025DB00E0FF900B4DE0FCA3E0FDC3ED9FEC9E50A4
:1025EB005B900B47120A3BC004C005C006C00790A6
:1025FB000B4DE0FEA3E0FF124E4BEF60127F007E0F
:10260B00857DE27C01AB07AA06A905A80480107F93
:10261B00807E337DE17C01AB07AA06A905A804D017
:10262B0007D006D005D004120831900B47120A9838
:10263B00900B4DE475F001120709808E900B4F74CF
:10264B0001F0900B41120B1F75820175830012056F
:10265B00D8FF900B4FE0FEEEC39F504E900B4712EE
:10266B000A3BC004C005C006C007900B4BE0FEA39D
:10267B00E0FF900B4FE0FD124452E4FCFDFE7B802B
:10268B007A517901780012084CA804A905AA06AB67
:10269B0007D007D006D005D004120831900B471293
:1026AB000A98900B4FE004F08098900B47120A3B6E
:1026BB00C004C005C006C007900B41120B1F7582EA
:1026CB00027583001205D8FFEF14FFE4FCFDFE7BBF
:1026DB00807A517901780012084CC004C005C006FD
:1026EB00C007900B44120B1F1205BFFF7E007C0E20
:1026FB007D10120BA0A804A905AA06AB07D007D022
:10270B0006D005D004120831C004C005C006C007AE
:10271B00900B44120B1F7582017583001205D8FFB5
:10272B007E007C007D3C120BA0A804A905AA06AB79
:10273B0007D007D006D005D004120831C004C0055D
:10274B00C006C007900B44120B1F758202758300E5
:10275B001205D8FFAB07E4FAF9F8D007D006D0057D
:10276B00D004120831A804A905AA06AB07D007D0DC
:10277B0006D005D004120831900B47120A98900B23
:10278B0047120A3B229009AFEFF09009B0120B3FB2
:10279B009009B5E4F0A3E4F07BFF7A5D79D4C00334
:1027AB00C002C0017B017A0979B7A801AC02AD0365
:1027BB00D001D002D0037E007F64120577900A1BF4
:1027CB007402F0900A1CE4F09009B0120B1FAE02D9
:1027DB00AF01EF4E70037F02229009AFE0FFEF12C3
:1027EB000B7427FD01280802281303281E04000080
:1027FB0028279009B5E4F0A37403F0801F9009B566
:10280B00E4F0A37417F080149009B5E4F0A3742BD3
:10281B00F080099009B5E4F0A3743FF0900A1BE037
:10282B00FF14F0EF70030229199009B5E0FEA3E045
:10283B00FF9009B0120B1F9009B3E0FCA3E0FD90D1
:10284B000A2CECF0A3EDF01231E97E00EF4E70CCC8
:10285B007E007F647D007B017A0979B7120D77903A
:10286B0009B5E0FEA3E0FF7B017A0979B79009B3C4
:10287B00E0FCA3E0FD900A5AECF0A3EDF0122C075C
:10288B007E00EF4E70969009B3E0FEA3E0FF900937
:10289B00B0120B1FC003C002C0017B017A0979B7CC
:1028AB00A801AC02AD03D001D002D003120D53EF3F
:1028BB003395E0FEEF4E60030228277B017A0979FE
:1028CB00B79009B3E0FEA3E0FFEF24FFFDEE34FF6A
:1028DB00FC120162900A1DEFF09009B3E0FEA3E039
:1028EB00FF74B62FF58274093EF583E0FF900A1E44
:1028FB00EFF0900A1EE0FF900A1DE0FEEE6F600302
:10290B00022827900A1C7401F08003022827900AE2
:10291B001CE0FFEF60047F0080027F0622900A7E9E
:10292B00EFF0A3120B3FE4900A82F0A3F0A3F0A305
:10293B00F0A3F0A3F0E94A601A900A7EE0FF7E0054
:10294B00C3940174809480400AD3EF9404748094F0
:10295B008040037F0122900A7F120B1F120AD500C1
:10296B00000000900A7EE024FE600E14600F1460DD
:10297B00102403700EC2B1800AC2B28006C2B380AB
:10298B0002C2B4AF057B017A0A798212407C900AAD
:10299B0087EFF06003022A767B017A0A79827FFF48
:1029AB0012407C900A87EFF06003022A767B017A53
:1029BB000A79837FFF12407C900A87EFF060030255
:1029CB002A767B017A0A79847FFF12407C900A87F2
:1029DB00EFF06003022A76900A85F0A3F0E59A5493
:1029EB00806019900A85E475F00112071FFED3E58C
:1029FB00F09464EE940040E5800280E1900A83E05D
:102A0B00FFE4FCFDFE78081209BEC004C005C00639
:102A1B00C007900A82E0FFE4FCFDFE78101209BEAD
:102A2B00D003D002D001D000120969A804A905AACD
:102A3B0006AB07900A84E0FFE4FCFDFE12096990E7
:102A4B000A7F120B1F120A21900A7EE024FE600EF1
:102A5B0014600F1460102403700ED2B1800AD2B22E
:102A6B008006D2B38002C2B47F0022900A7EE0249B
:102A7B00FE600E14600F1460102403700ED2B18030
:102A8B000AD2B28006D2B38002C2B47F0122900A6E
:102A9B008BEFF0E075F00BA42492F9740A35F0FA81
:102AAB007B01A3120B3F120B54120B9AEF70030214
:102ABB002BAD900A8C120B1F9000031205D8C394F8
:102ACB0003748094805008900003740112060590E3
:102ADB0000031205D864036003022C069000081251
:102AEB0005D870249000080412064A900004E4F5FF
:102AFB00F012080490000AE412064A900A8BE07563
:102B0B00F003A404FF1252E8900A8C120B1F9000E2
:102B1B0006120760FFAEF0D39400EE940050030250
:102B2B002C06900004E475F001120798FCC3E5F045
:102B3B009FEC9E4035900006120760FF900004E565
:102B4B00F08FF01208049000091205D8600E900A5D
:102B5B008C120B1F90000A1205D8700E900A8BE096
:102B6B0075F003A42403FF1252E8900A8C120B1F7A
:102B7B009000091205D8FFD3940074809480407B99
:102B8B0090000A7401120605C39F406F90000AE47F
:102B9B0012064A900A8BE075F003A42402FF12522E
:102BAB00E822900A8C120B1F9000031205D8D394C5
:102BBB000074809480400890000374FF1206059007
:102BCB0000031205D870349000081205D864017008
:102BDB001490000812064A900A8BE075F003A424A7
:102BEB0002FF1252E8900A8C120B1F900004E4F5BE
:102BFB00F012080490000AE412064A22900A55EEDD
:102C0B00F0A3EFF0A3120B3F900A5FE584F0E4F51D
:102C1B0084900A57120B1FE94A6019900A5AE07008
:102C2B0002A3E0600FD3900A56E094FF900A55E0A0
:102C3B00947F4009900A5FE0F5847F02221246C51B
:102C4B00900A5CEFF06009900A5FE0F5847F012247
:102C5B007FA0124204900A5CEFF0600C12525A9063
:102C6B000A5FE0F5847F0122900A55E0FF1242FCD7
:102C7B00900A5CEFF0600C12525A900A5FE0F584F8
:102C8B007F0122900A55E0A3E0FF1242FC900A5C00
:102C9B00EFF0600C12525A900A5FE0F5847F01222C
:102CAB00124719900A5CEFF0600C12525A900A5FAF
:102CBB00E0F5847F01227FA1124204900A5CEFF0C1
:102CCB00600C12525A900A5FE0F5847F0122E49067
:102CDB000A5DF0A3F0900A5AE0FEA3E0FF900A5DB4
:102CEB00E0FCA3E0FDC39FEC9E5049EF24FFFFEEF9
:102CFB0034FFFEEDB50708ECB506047F0080027FBC
:102D0B0001900A60EFF0900A57120B1FE92DF9EAB8
:102D1B003CFA12007E900A5CEFF0600C12525A9053
:102D2B000A5FE0F5847F0122900A5DE475F00112E1
:102D3B00070980A112525A900A5FE0F5847F0022A6
:102D4B00900A55EFF0A3EDF0A3120B3FE4900A5A53
:102D5B00F0A3120AA400000000900A56E0547F90E2
:102D6B000A5FF0A37402F0A314F0A3120AA40000EC
:102D7B000000900A66120AA400000000E94A601ADB
:102D8B00900A55E0FF7E00C3940174809480400A42
:102D9B00D3EF94047480948040037F0322900A57EE
:102DAB00120B1F120AD500000000900A55E0FFA37A
:102DBB00E0FDA3120B1F122928900A5AEFF06003B3
:102DCB007F0122900A57120B1F1209D1900A6B1226
:102DDB000A98900A5FE0900A6FF0900A55E0FF1294
:102DEB0030D4900A5AEFF060037F0422900A60E01F
:102DFB00FF14F0EF6019900A55E0FF7B017A0A7916
:102E0B005B124513900A61EFF070E1800280DD9058
:102E1B000A61E060037F0122900A57120B1F12090F
:102E2B00D1900A5B120A57C312099A6054900A5543
:102E3B00E0FFA3E0FD7B017A0A7966122928900A4C
:102E4B005AEFF060037F0122900A55E0FF7B017A75
:102E5B000A7962124513900A5AEFF07012900A62C7
:102E6B00120A3B900A66120A57C312099A60037F33
:102E7B000522900A66120A3B900A57120B1F120A80
:102E8B00217F0022AB05900A67EFF0E4900A6DF00A
:102E9B00A3F0A3F0A3F0A3F0A3F0A3F0FEC3EF9471
:102EAB000174809480400AD3EF9404748094804022
:102EBB00037F0322900A69120A3B78101209AB9028
:102ECB000A71EFF0900A69120A3B78081209AB906D
:102EDB000A72EFF0900A69120A3B900A73EFF090B6
:102EEB000A67E024FE600E14600F14601024037058
:102EFB000EC2B1800AC2B28006C2B38002C2B4EB6A
:102F0B004480FBFF7B017A0A796F12407C900A7038
:102F1B00EFF06003022FABA3E0FF7B017A0A796F1E
:102F2B0012407C900A70EFF07076900A72E0FF7B93
:102F3B00017A0A796F12407C900A70EFF070619001
:102F4B000A73E0FF7B017A0A796F12407C900A705A
:102F5B00EFF0704C900A6DF0A3F0E59A5480601D71
:102F6B00900A6DE475F00112071FFED3E5F094642F
:102F7B00EE940040E5900A707402F08023900A678B
:102F8B00E024FE600E14600F1460102403700ED248
:102F9B00B1800AD2B28006D2B38002D2B47F0022B3
:102FAB00D2B1D2B2D2B3D2B47F0222900A55EFF093
:102FBB00FBA3EDF0FAE4900A5BF0A3120AA4000065
:102FCB000000EA4480900A60F0A37402F0A314F0AE
:102FDB00A3120AA400000000EBFF7E00C39401744F
:102FEB00809480400AD3EF94047480948040037FD4
:102FFB000222900A57120A3B900A69120A98900A09
:10300B0056E0FD900A55E0FF122E8F900A5BEFF011
:10301B0060037F0222900A57120A3B900A6B120A36
:10302B0098900A60E0900A6FF0900A55E0FF12301A
:10303B00D4900A5BEFF060037F0422900A61E0FFFB
:10304B0014F0EF6019900A55E0FF7B017A0A795C66
:10305B00124513900A62EFF070E1800280DD900A56
:10306B0062E060037F0122900A57120A3B900A5CD0
:10307B00120A57C312099A604D900A57120A3B90D5
:10308B000A69120A98900A56E0FD900A55E0FF1261
:10309B002E8F900A5BEFF060037F0222900A55E0BF
:1030AB00FF7B017A0A7963124513900A5BEFF0708C
:1030BB0012900A57120A3B900A63120A57C312095D
:1030CB009A60037F05227F0022AB07900A70120AD9
:1030DB00A400000000E4900A74F0A3F0A3F0A3F0A6
:1030EB00A3F0A3F0A3F0A3F0A3F0EBFF7E00C39437
:1030FB000174809480400AD3EF94047480948040D0
:10310B00037F0222EBC39403748094805008900ACF
:10311B007D742EF08006900A7D7417F0AF03900A31
:10312B007DE0FD7B017A0A7970122928900A7CEFE9
:10313B00F060037F0122900A70120A3B781012098B
:10314B00ABEFE4A907900A74E9F0900A70120A3BFE
:10315B00EFEEE4900A75EEF0A3EFF0900A6B120A13
:10316B003B78101209ABEFE4900A79EFF0FB900A71
:10317B006B120A3B78081209ABEFE4900A7AEFF076
:10318B00FA900A6B120A3BEFE4900A7BEFF0900A7D
:10319B006FE0FEFD900A77E4F0A3EDF0EBFD900AF3
:1031AB0077E48DF0120709EAFD900A77E48DF012AF
:1031BB000709EFFD900A77E48DF0120709E96E60BD
:1031CB00037F0422900A77E0FEA3E0FF900A75E0EC
:1031DB006E7003A3E06F60037F04227F0022900ACE
:1031EB0027EEF0A3EFF0A3120B3F900A31E584F02A
:1031FB00E4F584900A29120B1FE94A6022900A2CED
:10320B00E0FEA3E0FF4E6017D3900A28E094FF90F6
:10321B000A27E0947F5008EF9440EE940040099009
:10322B000A31E0F5847F02221246C5900A2EEFF098
:10323B006009900A31E0F5847F01227FA0124204DD
:10324B00900A2EEFF0600C12525A900A31E0F5847E
:10325B007F0122900A27E0FF1242FC900A2EEFF02A
:10326B00600C12525A900A31E0F5847F0122900AC9
:10327B0027E0A3E0FF1242FC900A2EEFF0600C1245
:10328B00525A900A31E0F5847F0122E4900A2FF024
:10329B00A3F0900A2CE0FEA3E0FF900A2FE0FCA322
:1032AB00E0FDC39FEC9E5030900A29120B1F8D82BC
:1032BB008C831205D8FF1242FC900A2EEFF0600CA3
:1032CB0012525A900A31E0F5847F0122900A2FE4C2
:1032DB0075F00112070980BA12525A900A31E0F5C3
:1032EB00847F0022C0E0C083C082C0D075D000C0F4
:1032FB0002C003C004C005C006C007E4FD20ED03F7
:10330B000233D3C2EDAFBFEFFEACBEECFBEEEBFF77
:10331B00C3945AEE940E4009D3EF94FAEE940E40F8
:10332B005AC3EF94B0EE940A4009D3EF9450EE9445
:10333B000B4048C3EF9427EE94084009D3EF94C792
:10334B00EE94084036C3EF948EEE94064009D3EF0B
:10335B00942EEE94074024C3EF9427EE9404400977
:10336B00D3EF94C7EE94044012C3EF94B0EE9401E4
:10337B004013D3EF9450EE9402500A7D019008E471
:10338B007401F080139008E4E070047D01800990D3
:10339B0008E3E4F0A3F08030ED602DC2AF9008E3BA
:1033AB00E025E024D3F582E43408F583EEF0A3EFB7
:1033BB00F09008E3E004F0E0C3940874809480403C
:1033CB0005E4F01234BFD2AFD007D006D005D0043D
:1033DB00D003D002D0D0D082D083D0E032900A2755
:1033EB00120B3FE94A70037F0222900A27120B1F30
:1033FB00125130900A2AEFF06003E0FF22900A2767
:10340B00120B1F9000021205D8FF75F00A84FEC440
:10341B0054F0FEEF75F00A84E5F04E900A2BF09015
:10342B0000011205D8FF75F00A84FEC454F0FEEFBC
:10343B0075F00A84E5F04E900A2CF01205BFFF756B
:10344B00F00A84FEC454F0FEEF75F00A84E5F04EEA
:10345B00900A2DF07D02E4FF124280900A2AEFF0D1
:10346B0060037F0122900A2BE0FD7F0212428090C5
:10347B000A2AEFF060037F0122900A2CE0FD7F0304
:10348B00124280900A2AEFF060037F0122900A2DEE
:10349B00E0FD7F04124280900A2AEFF060037F0167
:1034AB0022E4FDFF124280900A2AEFF060037F01B5
:1034BB00227F0022C2AFE4FFEFC394087480948094
:1034CB005025EF25E024D3F582E43408F583E0FCA6
:1034DB00A3E0FDEF25E024C3F582E43408F583EC8B
:1034EB00F0A3EDF00F80D1D2AFE4FFEFC3940774DC
:1034FB00809480507EE4FEC374079FFDEEC39D5005
:10350B006EEE25E024C5F582E43408F583E0FCA3D8
:10351B00E0FDEE25E024C3F582E43408F583E0FA00
:10352B00A3E0FBD39DEA9C4043900A1FEAF0A3EB78
:10353B00F0EE25E024C5F582E43408F583E0FCA326
:10354B00E0FDEE25E024C3F582E43408F583ECF0CE
:10355B00A3EDF0900A1FE0FCA3E0FDEE25E024C5EF
:10356B00F582E43408F583ECF0A3EDF00E80880FC0
:10357B000234F6C2AF9008CBE0FFA3E0900905CF71
:10358B00F0A3EFF0D200D2AF22900A27120B3FE943
:10359B004A70037F0222900A27120B1F123C519094
:1035AB000A2AEFF06003E0FF22900A27120B1F900C
:1035BB0000021205D8FF75F00A84FEC454F0FEEF2A
:1035CB0075F00A84E5F04E900A2BF090000112057D
:1035DB00D8FF75F00A84FEC454F0FEEF75F00A8430
:1035EB00E5F04E900A2CF01205BFFF75F00A84FE31
:1035FB00C454F0FEEF75F00A84E5F04E900A2DF0FE
:10360B007D02E4FF124280900A2AEFF06003E0FF94
:10361B0022900A2BE0FD7F06124280900A2AEFF0DF
:10362B006003E0FF22900A2CE0FD7F07124280909E
:10363B000A2AEFF06003E0FF22900A2DE0FD7F08DD
:10364B00124280900A2AEFF06003E0FF22E4FDFFB4
:10365B00124280900A2AEFF022900B78EFF0900B39
:10366B0079120B3F900B78E0FF7E00C3EF9404EED2
:10367B0064809480500E900B79120B1FAE02AF0139
:10368B00EF4E70037F0222900B78E0FF7E05EF8EEA
:10369B00F0A4FFAEF0EF2426FFEE3420FEC006C0F0
:1036AB0007900B78E0FF7E05EF8EF0A4FFAEF0EFF6
:1036BB00242AFDEE3420FCC004C005900B78E0FFFB
:1036CB007E05EF8EF0A4FFAEF0EF2426FDEE342145
:1036DB00FC900B78E0FF7E05EF8EF0A4FFAEF0EFD1
:1036EB00242AFFEE3421FE900B15EEF0A3EFF090A1
:1036FB000B79120B1F900B17120B3F900B1AE4F068
:10370B00A37404F0AB05AA04D005D004D007D006EF
:10371B00121F51900B7CEFF0900B7CE0FF22900B73
:10372B0082EFF0900B83120B3F900B82E0FF7E0039
:10373B00C3EF9404EE64809480500E900B83120BB5
:10374B001FAE02AF01EF4E70037F0222900B82E09F
:10375B00FF7E10EF8EF0A4FFAEF0EF245EFFEE3491
:10376B0020FEC006C007900B82E0FF7E10EF8EF0AC
:10377B00A4FFAEF0EF246DFDEE3420FCC004C005B9
:10378B00900B82E0FF7E10EF8EF0A4FFAEF0EF24E3
:10379B005EFDEE3421FC900B82E0FF7E10EF8EF08D
:1037AB00A4FFAEF0EF246DFFEE3421FE900B15EE6F
:1037BB00F0A3EFF0900B83120B1F900B17120B3F24
:1037CB00900B1AE4F0A3740FF0AB05AA04D005D04C
:1037DB0004D007D006121F51900B86EFF0900B868A
:1037EB00E0FF22900B87EFF0900B88120B3F900BB2
:1037FB0087E0FF7E00C3EF9404EE64809480500E4C
:10380B00900B88120B1FAE02AF01EF4E70037F02BD
:10381B0022900B87E0FF7E10EF8EF0A4FFAEF0EF4F
:10382B00245EFFEE3420FEC006C007900B87E0FF3E
:10383B007E10EF8EF0A4FFAEF0EF246DFDEE342082
:10384B00FCC004C005900B87E0FF7E10EF8EF0A448
:10385B00FFAEF0EF245EFDEE3421FC900B87E0FF12
:10386B007E10EF8EF0A4FFAEF0EF246DFFEE34214F
:10387B00FE900338EEF0A3EFF0900B88120B1F9025
:10388B00033A120B3F90033DE4F0A3740FF0AB052A
:10389B00AA04D005D004D007D006122176900B8B4A
:1038AB00EFF0900B8BE0FF22900B8CEFF0900B8DD9
:1038BB00120B3F900B8CE0FF7E00C3EF9404EE6481
:1038CB00809480500E900B8D120B1FAE02AF01EF48
:1038DB004E70037F0222900B8CE0FF7E04EF8EF084
:1038EB00A4FFAEF0EF249EFFEE3420FEC006C0070F
:1038FB00900B8CE0FF7E04EF8EF0A4FFAEF0EF2474
:10390B00A1FDEE3420FCC004C005900B8CE0FF7EC3
:10391B0004EF8EF0A4FFAEF0EF249EFDEE3421FCFD
:10392B00900B8CE0FF7E04EF8EF0A4FFAEF0EF2443
:10393B00A1FFEE3421FE900B15EEF0A3EFF0900BF0
:10394B008D120B1F900B17120B3F900B1AE4F0A369
:10395B007403F0AB05AA04D005D004D007D006122F
:10396B001F51900B90EFF0900B90E0FF22900B917A
:10397B00EFF0900B92120B3F900B91E0FF7E00C388
:10398B00EF9404EE64809480500E900B92120B1FF8
:10399B00AE02AF01EF4E70037F0222900B91E0FF5E
:1039AB007E04EF8EF0A4FFAEF0EF249EFFEE3420EA
:1039BB00FEC006C007900B91E0FF7E04EF8EF0A4D3
:1039CB00FFAEF0EF24A1FDEE3420FCC004C0059047
:1039DB000B91E0FF7E04EF8EF0A4FFAEF0EF249E80
:1039EB00FDEE3421FC900B91E0FF7E04EF8EF0A4F2
:1039FB00FFAEF0EF24A1FFEE3421FE900338EEF082
:103A0B00A3EFF0900B92120B1F90033A120B3F9007
:103A1B00033DE4F0A37403F0AB05AA04D005D00476
:103A2B00D007D006122176900B95EFF0900B95E016
:103A3B00FF22900B7DEFF0900B7E120B3F900B7ED5
:103A4B00120B1FAE02AF01EF4E70037F0222900BE1
:103A5B007DE0FF7E05EF8EF0A4FFAEF0EF2426FF96
:103A6B00EE3420FEC006C007900B7DE0FF7E05EF15
:103A7B008EF0A4FFAEF0EF242AFDEE3420FCC00440
:103A8B00C005900B7DE0FF7E05EF8EF0A4FFAEF03E
:103A9B00EF2426FDEE3421FC900B7DE0FF7E05EF3D
:103AAB008EF0A4FFAEF0EF242AFFEE3421FE90033C
:103ABB0038EEF0A3EFF0900B7E120B1F90033A122F
:103ACB000B3F90033DE4F0A37404F0AB05AA04D0C4
:103ADB0005D004D007D006122176900B81EFF09021
:103AEB000B81E0FF22E4900ADEF0A3F0FFEFC3941A
:103AFB0006748094805058EF75F00BA42498F582CF
:103B0B00E4340AF583E4F0A37432F0EF75F00BA400
:103B1B002495F582E4340AF5837401F0EF75F00B0C
:103B2B00A4249AF582E4340AF583E4F0EF75F00BE4
:103B3B00A4249BF582E4340AF583E4F0EF75F00BD3
:103B4B00A4249CF582E4340AF583E4F00F809E9064
:103B5B000A9B7432F0900AA6F07BFF7A5479AB90F3
:103B6B000A92120B3F7A54794C900A9D120B3F7AB2
:103B7B0054795C900AA8120B3F7A54796C900AB373
:103B8B00120B3F7A54797C900ABE120B3F7A547910
:103B9B008C900AC9120B3F22900A30EFF0A3120B44
:103BAB003F900A35E584F0E4F5841246C5900A345B
:103BBB00EFF06007A3E0F5847F01227FD01242046F
:103BCB00900A34EFF0600C12525A900A35E0F584EB
:103BDB007F0122900A30E0FF1242FC900A34EFF092
:103BEB00600C12525A900A35E0F5847F012212477D
:103BFB0019900A34EFF0600C12525A900A35E0F526
:103C0B00847F01227FD1124204900A34EFF0600CC2
:103C1B0012525A900A35E0F5847F0122900A311234
:103C2B000B1FE4FF12007E900A34EFF0600C12526F
:103C3B005A900A35E0F5847F012212525A900A35C8
:103C4B00E0F5847F0022900A2E741FF09000011281
:103C5B0005D8FF7E00C3940174809480400AD3EF93
:103C6B00940C7480948040037F0122900002120513
:103C7B00D8C394017480948050037F01229000017B
:103C8B001205D824FC602B24FE602724FD6023241E
:103C9B00FE601F240970231205BFFF5403700BEF46
:103CAB006008900A2E741DF08016900A2E741CF07A
:103CBB00800E900A2E741EF08006900A2E741FF050
:103CCB009000021205D8FF900A2EE0FEEFD39E4023
:103CDB00037F01221205BFD3946374809480400349
:103CEB007F01227F0022900C0B120B3F900C0B12CA
:103CFB000B1FAE02AF01EF4E7003023D8EC2AF90B1
:103D0B0008F7E0FFEF24D0FF900C0B120B1F75820E
:103D1B0006758300EF12064A9008F8E0FF900C0B33
:103D2B00120B1F758207758300EF12064A9008F974
:103D3B00E0FF900C0B120B1F758208758300EF12BE
:103D4B00064A9008FAE0FF900C0B120B1F758209C4
:103D5B00758300EF12064A9008FBE0FF900C0B12E4
:103D6B000B1F75820A758300EF12064A9008FCE060
:103D7B00FF900C0B120B1F75820B758300EF120655
:103D8B004AD2AF22900A29120B3FE94A70037F02F5
:103D9B00227D01E4FF124280900A2CEFF07B017A26
:103DAB000A792D7F06123BA3900A2CEFF07B017A48
:103DBB000A792E7F07123BA3900A2CEFF07B017A36
:103DCB000A792F7F08123BA3900A2CEFF0E4FDFF3A
:103DDB00124280900A2CEFF0A3E0FEC4540F75F052
:103DEB000AA4FDEE540F2DFE900A29120B1F900012
:103DFB0002EE12064A900A2EE0FEC4540F75F00A2A
:103E0B00A4FDEE540F2D90000112064A900A2FE0EC
:103E1B00FEC4540F75F00AA4FDEE540F2D12063894
:103E2B0022900A29120B3FE94A70037F02227D017F
:103E3B00E4FF124280900A2CEFF07B017A0A792D75
:103E4B007F02123BA3900A2CEFF07B017A0A792EAA
:103E5B007F03123BA3900A2CEFF07B017A0A792F98
:103E6B007F04123BA3900A2CEFF0E4FDFF1242807B
:103E7B00900A2CEFF0A3E0FEC4540F75F00AA4FDDA
:103E8B00EE540F2DFE900A29120B1F900002EE121A
:103E9B00064A900A2EE0FEC4540F75F00AA4FDEEFC
:103EAB00540F2D90000112064A900A2FE0FEC454C5
:103EBB000F75F00AA4FDEE540F2D1206382290094F
:103ECB0005E0FEA3E0FDAC06C3945AEC940E400D46
:103EDB00D3ED94FAEC940E5004E4FEFF22C3ED9460
:103EEB00B0EC940A400ED3ED9450EC940B50057E3D
:103EFB00007F0122C3ED9427EC9408400ED3ED9480
:103F0B00C7EC940850057E007F0222C3ED948EEC23
:103F1B009406400ED3ED942EEC940750057E007F53
:103F2B000322C3ED9427EC9404400ED3ED94C7EC1D
:103F3B00940450057E007F0422C3ED94B0EC9401F1
:103F4B00400ED3ED9450EC940250057E007F052279
:103F5B007EFF7FFF22787FE4F6D8FD75812012016A
:103F6B000A023FAA02549CE493A3F8E493A34003F0
:103F7B00F68001F208DFF48029E493A3F8540724B8
:103F8B000CC8C333C4540F4420C8834004F4568078
:103F9B000146F6DFE4800B010204081020408090FC
:103FAB001CBCE47E019360BCA3FF543F30E5095475
:103FBB001FFEE493A360010ECF54C025E060A84020
:103FCB00B8E493A3FAE493A3F8E493A3C8C582C817
:103FDB00CAC583CAF0A3C8C582C8CAC583CADFE9EC
:103FEB00DEE780BE900B66120B3F900B66120B1F29
:103FFB00AE02AF01EF4E70037F002212508D900B7B
:10400B006AEFF0900B6AE0FF7E00EF4E70047F6367
:10401B008008900B6AE0FFEF14FF900B6BEFF090B2
:10402B000B6BE0FF7E0CEF8EF0A4FFAEF0EF2444A1
:10403B00FFEE3428FE900B66120B1F900A5AE4F029
:10404B00A3740CF0122C07900B69EFF0900B69E046
:10405B00FFEF6006900B69E0FF22900B66120B1FBF
:10406B00120735FFAEF0EF4E60047F0880027F0928
:10407B0022900A88EFF0A3E584F0E4FDFCE94A7096
:10408B00037F0222E4F584FCFDE59A548060160D53
:10409B00ED70010CD394C8EC940040ED900A89E0CC
:1040AB00F5847F0122E4FCFD20F9160DED70010C67
:1040BB00D394C8EC940040F0900A89E0F5847F011A
:1040CB0022900A88E0F59BE4FCFD20FF1D0DED70AE
:1040DB00010CD394F4EC940140F0A2FFB3E43352FF
:1040EB00F8900A89E0F5847F0122E59B120638C21D
:1040FB00FF900A89E0F5847F0022900B96EFF090F9
:10410B000B97120B3F900B97120B1FAE02AF01EFE9
:10411B004E70037F0222900B96E0FF7E00C3EF945C
:10412B0064EE6480948040037F0522900B96E0FF41
:10413B007E0CEF8EF0A4FFAEF0EF2444FFEE34289C
:10414B00FE900B97120B1F900A5AE4F0A3740CF01D
:10415B00122C07900B9AEFF0900B9AE0FFEF600692
:10416B00900B9AE0FF22900B97120B1F120735FF53
:10417B00AEF0EF4E60047F0880027F0922900AFCAC
:10418B00EFF012508D900B0EEFF07E007F0C7D0048
:10419B007B017A0B7902120D77900AFCE0FF7E000F
:1041AB00900B02EEF0A3EFF0900AFD120A3B900B7E
:1041BB0004120A987B017A0B7902123CF1900B0ED8
:1041CB00E0FF7E0CEF8EF0A4FFAEF0EF2444FFEE89
:1041DB003428FE7B017A0B7902900A2CE4F0A3744D
:1041EB000CF01231E9900B01EFF07B017A0B790E99
:1041FB0012002E900B01E0FF22AB072002037F047D
:10420B002220C311900C1A7406F012525AC202905B
:10421B000C1AE0FF22AF038FC2C2C37F107E277D33
:10422B00007C00125235EF6011900C1A7402F012E0
:10423B00525AC202900C1AE0FF22AFC1EF24E06089
:10424B001324E8601724F8600824F8600724307002
:10425B00137F0022900C1A7401F0800E900C1A74CC
:10426B0003F08006900C1A7404F012525AC202909A
:10427B000C1AE0FF22900A56EFF0A3EDF0900A59CA
:10428B00E584F0E4F5841246C5900A58EFF0600718
:10429B00A3E0F5847F01227FD0124204900A58EFED
:1042AB00F0600C12525A900A59E0F5847F0122906B
:1042BB000A56E0FF1242FC900A58EFF0600C1252C3
:1042CB005A900A59E0F5847F0122900A57E0FF12B9
:1042DB0042FC900A58EFF0600C12525A900A59E0C7
:1042EB00F5847F012212525A900A59E0F5847F001F
:1042FB0022AB072002037F042220C311900C1A74F7
:10430B0006F012525AC202900C1AE0FF22AF038F32
:10431B00C2C2C37F107E277D007C00125235EF6036
:10432B0011900C1A7402F012525AC202900C1AE03D
:10433B00FF22AFC1EF64287002FF22AFC1EF6430E0
:10434B007007900C1A04F08015AFC1EF6438700839
:10435B00900C1A7403F08006900C1A7406F012522B
:10436B005AC202900C1AE0FF22C2AF7B017A087985
:10437B00F7C003C002C0017B017A0B7960A801ACC6
:10438B0002AD03D001D002D0037E007F031205776C
:10439B007B017A0879FAC003C002C0017B017A0B5A
:1043AB007963A801AC02AD03D001D002D0037E002B
:1043BB007F03120577D2AF7B017A0B7960C003C004
:1043CB0002C0017B017A0B7963900B44120B3FD037
:1043DB0001D002D00312259F22C0E0C0F0C083C0E1
:1043EB0082C0D075D000C000C001C002C003C004A1
:1043FB00C005C006C00730982EC298AF999001CA6D
:10440B00E0C3E494015018E0FE04F074022EF58230
:10441B00E43400F583EFF01201B21201AD80089085
:10442B0001CAE4F01201B2309902C299D007D0064A
:10443B00D005D004D003D002D001D000D0D0D08290
:10444B00D083D0F0D0E032900B31EEF0A3EFF090B0
:10445B000B33EDF07BFF7A5E7938C003C002C001ED
:10446B007B017A0B7934A801AC02AD03D001D002E9
:10447B00D0037E007F0D120577900B33E0FF7E009B
:10448B00EF64024E7012900B31E0FEA3E0FF124E70
:10449B004BEF60047F1D8011900B33E0FF74342FC2
:1044AB00F582E4340BF583E0FF22900C04120B3FF2
:1044BB00E4900C07F0E94A70037F0122900C041280
:1044CB000B1F7F13123BA3900C07EFF0E0FEC0060F
:1044DB00900C04120B1FE92401F9E43AFA7F141231
:1044EB003BA3D0E04F900C07F0E0FEC006900C040D
:1044FB00120B1FE92402F9E43AFA7F15123BA3D001
:10450B00E04FFF900C07F022AE07E4900A6AF0E947
:10451B004A6017EEFD7C00C3940174809480400ABE
:10452B00D3ED94047480948040037F0222120AD549
:10453B0000000000EEC39403748094805008900A2E
:10454B006B742DF08006900A6B7416F0AF06900A10
:10455B006BE0FD122928900A6AEFF060037F0122BD
:10456B007F0022E4900A22F0A37403F012543990D6
:10457B000A23E0FF14F0EF602EE4FF120E17900AEF
:10458B0022EFF07F01120E17900A22EFF07F02123A
:10459B000E17900A22EFF07F03120E17900A22EFEC
:1045AB00F070CC800280C8900A23E0D39400748012
:1045BB00948040037F00227F0122125364900A21D2
:1045CB00120A989008BF120A57900A21120A3B123E
:1045DB00083E900A25120A98E47FE87E03FDFC90C2
:1045EB000A25120A57C312099A40247B017A0879CB
:1045FB00F7123D8F7B017A0879FA123E2C900A2133
:10460B00120A3B9008BF120A989002E77401F0223D
:10461B00C0E0C0F0C083C082C0D075D000C000C065
:10462B0001C002C003C004C005C006C007758CF8EA
:10463B00758ACDC28D900C00120A3BE47B01FAF90E
:10464B00F8120831900C00120A98D007D006D0054A
:10465B00D004D003D002D001D000D0D0D082D083F0
:10466B00D0F0D0E032123EC9AD07AC06200010E40A
:10467B00900A91F074FF900A8FF0A3F0FEFF229046
:10468B000A8FE0B50420A3E0B5051BEDF47002EC36
:10469B00F46013A3E004F0E0C394037480948040AF
:1046AB0014AF05AE0422E4900A91F0AF05900A8F87
:1046BB00ECF0A3EFF07EFF7FFF221254D050037F6C
:1046CB000422D202E4900C1AF0D2C5C2C37F107E32
:1046DB0027FDFC125235EF600A900C1A7402F0C2DF
:1046EB0002FF22AFC1EF6408601FAFC1EF643870E7
:1046FB00047F0380027F01900C1AEFF0C2C51252A7
:10470B005AC202900C1AE0FF22C2C57F002220027F
:10471B00037F0422D2C5C2C37F107E277D007C009D
:10472B00125235EF6011900C1A7402F0C202125241
:10473B005A900C1AE0FF22AFC1EF6410601DAFC19D
:10474B00EF643870047F0380027F04900C1AEFF043
:10475B0012525AC202900C1AE0FF22C2C57F0022ED
:10476B00900BA0120B3F900BA0120B1FAE02AF01D0
:10477B00EF4E6039900B157421F0A37408F0900B79
:10478B00A0120B1F900B17120B3F900B1AE4F0A308
:10479B007404F07B047A217D087C207F047E201238
:1047AB001F51900BA3EFF0900BA3E0FF227F02228F
:1047BB00900BA4120B3F900BA4120B1FAE02AF0178
:1047CB00EF4E60399003387421F0A37408F0900B0E
:1047DB00A4120B1F90033A120B3F90033DE4F0A37E
:1047EB007404F07B047A217D087C207F047E2012E8
:1047FB002176900BA7EFF0900BA7E0FF227F022210
:10480B00900BA8120B3F900BA8120B1FAE02AF011F
:10481B00EF4E6039900B157421F0A3740EF0900BD2
:10482B00A8120B1F900B17120B3F900B1AE4F0A35F
:10483B007405F07B097A217D0E7C207F097E201286
:10484B001F51900BABEFF0900BABE0FF227F0222DE
:10485B00900BAC120B3F900BAC120B1FAE02AF01C7
:10486B00EF4E60399003387421F0A3740EF0900B67
:10487B00AC120B1F90033A120B3F90033DE4F0A3D5
:10488B007405F07B097A217D0E7C207F097E201236
:10489B002176900BAFEFF0900BAFE0FF227F02225F
:1048AB00900BB0120B3F900BB0120B1FAE02AF016F
:1048BB00EF4E6039900B157421F0A37414F0900B2C
:1048CB00B0120B1F900B17120B3F900B1AE4F0A3B7
:1048DB007405F07B0F7A217D147C207F0F7E2012D4
:1048EB001F51900BB3EFF0900BB3E0FF227F02222E
:1048FB00900BB4120B3F900BB4120B1FAE02AF0117
:10490B00EF4E60399003387421F0A37414F0900BC0
:10491B00B4120B1F90033A120B3F90033DE4F0A32C
:10492B007405F07B0F7A217D147C207F0F7E201283
:10493B002176900BB7EFF0900BB7E0FF227F0222AE
:10494B00900BB8120B3F900BB8120B1FAE02AF01BE
:10495B00EF4E6039900B157421F0A37425F0900B7A
:10496B00B8120B1F900B17120B3F900B1AE4F0A30E
:10497B007410F07B157A217D257C207F157E20120B
:10498B001F51900BBBEFF0900BBBE0FF227F02227D
:10499B00900BBC120B3F900BBC120B1FAE02AF0166
:1049AB00EF4E60399003387421F0A37425F0900B0F
:1049BB00BC120B1F90033A120B3F90033DE4F0A384
:1049CB007410F07B157A217D257C207F157E2012BB
:1049DB002176900BBFEFF0900BBFE0FF227F0222FE
:1049EB00900BC0120B3F900BC0120B1FAE02AF010E
:1049FB00EF4E6039900B157421F0A3743FF0900BC0
:104A0B00C0120B1F900B17120B3F900B1AE4F0A365
:104A1B007405F07B3A7A217D3F7C207F3A7E201211
:104A2B001F51900BC3EFF0900BC3E0FF227F0222CC
:104A3B00900BC4120B3F900BC4120B1FAE02AF01B5
:104A4B00EF4E60399003387421F0A3743FF0900B54
:104A5B00C4120B1F90033A120B3F90033DE4F0A3DB
:104A6B007405F07B3A7A217D3F7C207F3A7E2012C1
:104A7B002176900BC7EFF0900BC7E0FF227F02224D
:104A8B00900BC8120B3F900BC8120B1FAE02AF015D
:104A9B00EF4E6039900B157421F0A37450F0900B0E
:104AAB00C8120B1F900B17120B3F900B1AE4F0A3BD
:104ABB007410F07B407A217D507C207F407E201249
:104ACB001F51900BCBEFF0900BCBE0FF227F02221C
:104ADB00900BCC120B3F900BCC120B1FAE02AF0105
:104AEB00EF4E60399003387421F0A37450F0900BA3
:104AFB00CC120B1F90033A120B3F90033DE4F0A333
:104B0B007410F07B407A217D507C207F407E2012F8
:104B1B002176900BCFEFF0900BCFE0FF227F02229C
:104B2B00900BD0120B3F900BD0120B1FAE02AF01AC
:104B3B00EF4E6039900B157421F0A37457F0900B66
:104B4B00D0120B1F900B17120B3F900B1AE4F0A314
:104B5B007406F07B517A217D577C207F517E201289
:104B6B001F51900BD3EFF0900BD3E0FF227F02226B
:104B7B00900BD4120B3F900BD4120B1FAE02AF0154
:104B8B00EF4E60399003387421F0A37457F0900BFB
:104B9B00D4120B1F90033A120B3F90033DE4F0A38A
:104BAB007406F07B517A217D577C207F517E201239
:104BBB002176900BD7EFF0900BD7E0FF227F0222EC
:104BCB00900BD8120B3F900BD8120B1FAE02AF01FC
:104BDB00EF4E6039900B157421F0A37459F0900BC4
:104BEB00D8120B1F900B17120B3F900B1AE4F0A36C
:104BFB007401F07B587A217D597C207F587E2012DE
:104C0B001F51900BDBEFF0900BDBE0FF227F0222BA
:104C1B00900BDC120B3F900BDC120B1FAE02AF01A3
:104C2B00EF4E60399003387421F0A37459F0900B58
:104C3B00DC120B1F90033A120B3F90033DE4F0A3E1
:104C4B007401F07B587A217D597C207F587E20128D
:104C5B002176900BDFEFF0900BDFE0FF227F02223B
:104C6B00900BE0120B3F900BE0120B1FAE02AF014B
:104C7B00EF4E6039900B157421F0A3745BF0900B21
:104C8B00E0120B1F900B17120B3F900B1AE4F0A3C3
:104C9B007401F07B5A7A217D5B7C207F5A7E201237
:104CAB001F51900BE3EFF0900BE3E0FF227F02220A
:104CBB00900BE4120B3F900BE4120B1FAE02AF01F3
:104CCB00EF4E60399003387421F0A3745BF0900BB6
:104CDB00E4120B1F90033A120B3F90033DE4F0A339
:104CEB007401F07B5A7A217D5B7C207F5A7E2012E7
:104CFB002176900BE7EFF0900BE7E0FF227F02228B
:104D0B00900BE8120B3F900BE8120B1FAE02AF019A
:104D1B00EF4E6039900B157421F0A3745DF0900B7E
:104D2B00E8120B1F900B17120B3F900B1AE4F0A31A
:104D3B007401F07B5C7A217D5D7C207F5C7E201290
:104D4B001F51900BEBEFF0900BEBE0FF227F022259
:104D5B00900BEC120B3F900BEC120B1FAE02AF0142
:104D6B00EF4E60399003387421F0A3745DF0900B13
:104D7B00EC120B1F90033A120B3F90033DE4F0A390
:104D8B007401F07B5C7A217D5D7C207F5C7E201240
:104D9B002176900BEFEFF0900BEFE0FF227F0222DA
:104DAB00900BF0120B3F900BF0120B1FAE02AF01EA
:104DBB00EF4E6039900B157421F0A374B0F0900B8B
:104DCB00F0120B1F900B17120B3F900B1AE4F0A372
:104DDB007402F07BAE7A217DB07C207FAE7E2012F8
:104DEB001F51900BF3EFF0900BF3E0FF227F0222A9
:104DFB00900BF4120B3F900BF4120B1FAE02AF0192
:104E0B00EF4E60399003387421F0A374B0F0900B1F
:104E1B00F4120B1F90033A120B3F90033DE4F0A3E7
:104E2B007402F07BAE7A217DB07C207FAE7E2012A7
:104E3B002176900BF7EFF0900BF7E0FF227F022229
:104E4B00900C14EEF0A3EFF0900C14E0FEA3E0FF37
:104E5B007E00EF5403FFEF4E7013900C14E0FEA393
:104E6B00E0FF7C007D6412067EED4C7013900C14F9
:104E7B00E0FEA3E0FF7C017D9012067EED4C7004FA
:104E8B007F0180027F0022C28E5398BF439810E4AB
:104E9B007F807E01FDFC9001CD120A5712084CA8B1
:104EAB0004A905AA06AB077F007E807D517C011209
:104EBB0008D7EFF404FFF58DF58B53890F43892049
:104ECB00D28EC298C299759110D29C22C2D5E8306D
:104EDB00E70FB2D5E4C39BFBE49AFAE499F9E498A3
:104EEB00F8EC30E717B2D5124F0D1208D7E4C39B7D
:104EFB00FBE49AFAE499F9E498F880031208D730A6
:104F0B00D50DE4C39FFFE49EFEE49DFDE49CFC22D3
:104F1B00E4900A21F0125381122394900A21EFF0AE
:104F2B0014601B14601C2402701A7B017A0879F739
:104F3B00123D8F7B017A0879FA123E2C8006D296AD
:104F4B008002D2961201761200FC12456E120144B9
:104F5B00D2AF22AA07C3EF9406748094805035AF6A
:104F6B0005EA75F00BA42498F582E4340AF583EC7A
:104F7B00F0A3EFF0EA75F00BA4249BF582E4340A5E
:104F8B00F583EBF0EA75F00BA4249CF582E4340A6C
:104F9B00F583E4F022E4900C1BF0E94A70037F01E7
:104FAB00227D017F13124280900C1BEFF0E0FEC0BC
:104FBB00067D177F14124280D0E04F900C1BF0E05F
:104FCB00FEC0067D017F15124280D0E04FFF900C92
:104FDB001BF022C0E0C0F0C083C082C0D075D000EF
:104FEB00C000C001C002C003C004C005C006C0079A
:104FFB00C2CF125309D007D006D005D004D003D0AE
:10500B0002D001D000D0D0D082D083D0F0D0E0320B
:10501B00900C08120B3F900C08120B1F1205BFFFD0
:10502B00EF04FFEF75F06484AFF0900C08120B1FC8
:10503B00EF120638900C08120B1F900A2CE4F0A309
:10504B007401F07F037E201231E922900C18E4F0FA
:10505B007B017A0C7918900A5AE4F0A37401F07F63
:10506B00037E20122C07900C18E0FF7E00C3EF94F8
:10507B0064EE6480948040047F008005900C18E0FF
:10508B00FF22900C19E4F07B017A0C7919900A5AE3
:10509B00E4F0A37401F07F027E20122C07900C1910
:1050AB00E0FF7E00C3EF9464EE6480948040047F45
:1050BB00008005900C19E0FF22EFC39405748094D7
:1050CB0080502BEF146012146014146016146019C6
:1050DB002404701AC28CC2A922C28EC2AB22C2CACD
:1050EB00C2AD22C2CA53E7FE22C2CA53E7FB22EF6C
:1050FB00C3940574809480502BEF146012146014C9
:10510B001460161460192404701AD28CD2A922D2FE
:10511B008ED2AB22D2CAD2AD22D2CA43E70122D25F
:10512B00CA43E704221205BFD394177480948040BE
:10513B00037F01229000011205D8D3943B74809415
:10514B008040037F01229000021205D8D3943B7458
:10515B0080948040037F01227F0022900ADFE0FFD2
:10516B00900ADEE0FEB507037F002274D42EF58291
:10517B00E4340AF583E0FF900ADEE004F0C3940AFE
:10518B00748094804002E4F022AF8475840F43A4B2
:10519B009575A5FF75A6FF75A7FF439CC075C83F06
:1051AB0075E107E4F5E275E340438008F590F5A05F
:1051BB0075B00F8F8422E4FDFCC3ED9FEC9E501D58
:1051CB0000000000000000000000000000000000D4
:1051DB000000000000000DED70010C80DC22900A35
:1051EB0024EEF0A3EFF0E4FBFAD3900A25E09B90BA
:1051FB000A24E09A400E7FE87E031251C10BEB703C
:10520B00010A80E522900C0E120B3F900C0E120B34
:10521B001F1205BF6013900C0EE475F001120B28E2
:10522B001205BFFF12000380E222900A64120A9853
:10523B0020C313900A6474FF120A65E4FBFAF9F8B1
:10524B00C312099A40EA20C3037F02227F00223057
:10525B000221D2C4C2C3900A64120AA40000271010
:10526B0030C40E900A6474FF120A65EC4D4E4F70F9
:10527B00EFC20222900C11120B3FE4FEEEC39D50C5
:10528B0015900C11120B1F8E827583001205D8FF1F
:10529B001200030E80E622AF84E4F584759A60F564
:1052AB00F87E36EED394FF7480948040027EFF8E9E
:1052BB009DC2FBC2FAD2F88F8422EF600E7D087F6D
:1052CB000B124280900A55EFF0800CE4FD7F0B121D
:1052DB004280900A55EFF0900A55E0FF22900ADFCA
:1052EB00E024D4F582E4340AF583EFF0900ADFE092
:1052FB0004F0C3940A748094804002E4F022E4909A
:10530B000A8AF0900A8AE0FFC39406748094805056
:10531B000B122A99900A8AE004F080E722AF847579
:10532B008401E4F5C8F5C975CBB8F5CA75CDB8F5E8
:10533B00CCC2CF43E701D2CA8F8422EFC394067449
:10534B008094805011EF75F00BA4249AF582E4340D
:10535B000AF583E0FF227F0022AB84C2AF900C00E2
:10536B00120A3B900A29120A98D2AFAF038F84908E
:10537B000A29120A3B2212000E1254C51254DB12D8
:10538B0052A21251941253D51253F012540B1253C2
:10539B009D22AF84E4F584F5C8F5C9F5CA75CBB881
:1053AB00F5CC75CDB8C2CFD2ADD2CA8F8422AE07A1
:1053BB00EED3941E7480948040037F0222EE540738
:1053CB004480FFFD7F0A12428022AF84E4F584F50E
:1053DB00BAF5BB75D10375BC2875E88C43E702435E
:1053EB00F7028F8422AF84E4F58475CFE4F5C0D245
:1053FB00C1C2C0D2C2D2C6C202900C1AF08F842294
:10540B00AF84E4F584438901F58E758CF8758ACDEC
:10541B00D2A9D28C8F8422AF84E4F584C2C6D2C6C3
:10542B00C2C7C2C5C2C4D2C2C2028F84FF22C2B0DD
:10543B007F027E001251E9D2B07F057E001251E946
:10544B0022124670EF64014E70047F0180027F00D0
:10545B0022124670EF64024E70047F0180027F00BF
:10546B0022124670EF64034E70047F0180027F00AE
:10547B0022124670EF64044E70047F0180027F009D
:10548B0022124670EF64054E70047F0180027F008C
:10549B0022124F1B1245C51201491254F580F522F9
:1054AB00124670EF4E70047F0180027F0022EF24C2
:1054BB000A83900100730A1B2C3DAF84E4F58475BD
:1054CB00EF028F842220C703300203D38001C32253
:1054DB00C2AF75FFDE75FFAD22900ADFE0900ADEEA
:1054EB00F022E4FD7F0A124280227D0A7F091242DC
:1054FB00802212550475FFA522EF5407F5FF22C237
:10550B00CF324331004332004333004334002F008A
:10551B003A00CAB1BCE400CAD6B6AF00D7D4B6AF16
:10552B0000D6F7B2CBB5A500CFB5CDB3C9E8D6C37E
:10553B0000B2CECAFDC9E8D6C300B5F7CAD4CDB602
:10554B00C7D000B2C9D1F9D0A3D7BC00CAC2BCFE28
:10555B00BCC7C2BC00CAFDBEDDCDB3BCC600CFB557
:10556B00CDB3B2CECAFD00B5E7C8DDB2CECAFD00E1
:10557B00BFD8D6C6B2CECAFD00B1A3BBA4B2CECAA9
:10558B00FD00CDA8D1B6B2CECAFD00CDB3BCC6B21C
:10559B00CECAFD00B1A3BBA4BFDAC1EE00C8D5C60D
:1055AB00DAC9E8D6C300CAB1BCE4C9E8D6C300B1B6
:1055BB00A8BEAFC9E8D6C300B6D4B1C8B6C8C9E84F
:1055CB00D6C3002D006D696E00B9D8B1D50020008F
:1055DB00B3A3BFAA00B5F7CAD4CDB6B5E7C8DD00F3
:1055EB00B4F2BFAA00BCFD00202000C7D000CDB68E
:1055FB0000B0E6B1BE3A00C4ACC8CF0020202020DA
:10560B00202020202020202000D2BBC2B7B9FDC112
:10561B00F700B6FEC2B7B9FDC1F700C8C2B7B9FDF6
:10562B00C1F700CBC4C2B7B9FDC1F700D2BBC2B73B
:10563B00CBD9B6CF00B6FEC2B7CBD9B6CF00C8C256
:10564B00B7CBD9B6CF00CBC4C2B7CBD9B6CF00D26C
:10565B00BBC2B7C1E3D0F200B6FEC2B7C1E3D0F212
:10566B0000C8C2B7C1E3D0F200CBC4C2B7C1E3D00C
:10567B00F200CFB5CDB3B9FDD1B900CFB5CDB3C71E
:10568B00B7D1B900D2BBC2B7BEDCCDB600B6FEC235
:10569B00B7BEDCCDB600C8C2B7BEDCCDB600CBC43E
:1056AB00C2B7BEDCCDB600D2BBC2B7BEDCC7D00022
:1056BB00B6FEC2B7BEDCC7D000C8C2B7BEDCC7D00F
:1056CB0000CBC4C2B7BEDCC7D000D2BBC2B7CDE2E1
:1056DB00B2BFB9CAD5CF00B6FEC2B7CDE2B2BFB921
:1056EB00CAD5CF00C8C2B7CDE2B2BFB9CAD5CF00B9
:1056FB00CBC4C2B7CDE2B2BFB9CAD5CF00C7B0B623
:10570B00CED7DCD5A2B6CFB5E700D2BBC2B7CDB6EC
:10571B00C8EB00B6FEC2B7CDB6C8EB00C8C2B7CD5A
:10572B00B6C8EB00CBC4C2B7CDB6C8EB00D2BBC278
:10573B00B7C7D0B3FD00B6FEC2B7C7D0B3FD00C824
:10574B00C2B7C7D0B3FD00CBC4C2B7C7D0B3FD003F
:10575B00202020202020002020202020202020007E
:10576B00C8D5CDB6B4CECAFD3A00D4C2CDB6B4CEF0
:10577B00CAFD3A00C8D5C7D0B4CECAFD3A00D4C2D0
:10578B00C7D0B4CECAFD3A00B4CE00CFB5CDB3501E
:10579B005400CFB5CDB3435400D2BBC2B743540072
:1057AB00B6FEC2B7435400C8FDC2B7435400CBC4C6
:1057BB00C2B7435400B1A3B4E600CDCBB3F600237C
:1057CB00004100CDB6C8EB004B56617200B5E7D176
:1057DB00B9C9CFCFDE00CDB6C7D0B7BDB0B800B515
:1057EB00E7D1B9CFC2CFDE00CDB6C7D0CFB5CAFD9A
:1057FB0000434F537DC9CFCFDE00CDB6C8EBD1D31D
:10580B00CAB100434F537DCFC2CFDE00C7D0B3FD2B
:10581B00D1D3CAB100CFDECDB6B4CECAFD00C1AC78
:10582B00B6AFBCE4B8F400B2EEC8DD00D7E9BACF2E
:10583B0000C2CBB2A800B5C8C8DD004B56002B0088
:10584B007300302E002FC8D500CFB5CDB3C7B7D15D
:10585B00B9B1A3BBA400C7B7D1B9CDB6CDCB00C7E7
:10586B00B7D1B9B5E7D1B900C7B7D1B9CAB1BCE4A3
:10587B0000CFB5CDB3B9FDD1B9B1A3BBA42000B94D
:10588B00FDD1B9CDB6CDCB00B9FDD1B9B5E7D1B905
:10589B0000B9FDD1B9CAB1BCE42000D2BBC2B7B5C7
:1058AB00E7C8DDB1A3BBA400B6FEC2B7B5E7C8DD40
:1058BB00B1A3BBA400C8FDC2B7B5E7C8DDB1A3BB9C
:1058CB00A400CBC4C2B7B5E7C8DDB1A3BBA400B974
:1058DB00FDC1F7CDB6CDCB00B9FDC1F7B5E7C1F72B
:1058EB0000B9FDC1F7CAB1BCE400CBD9B6CFCDB678
:1058FB00CDCB00CBD9B6CFB5E7C1F700CBD9B6CF5F
:10590B00CAB1BCE400C1E3D0F2CDB6CDCB00C1E34C
:10591B00D0F2B5E7D1B900C1E3D0F2CAB1BCE40013
:10592B005600CDA8D1B6B5D8D6B700B2A8CCD8C240
:10593B00CAD6B500CDA8D1B6B9E6D4BC0048004D47
:10594B006F646275730000000000FF552CFF553328
:10595B00FF553CFF5545FF554EFF5557FF5560FF13
:10596B00553CFF5569FF5572FF557BFF5584FF551D
:10597B008DFF5596FF5533FF559FFF55A8FF55B12A
:10598B00FF55BAFF55C3FF55E0FF5545FF55D4FFF3
:10599B0055EBFF5560FF576BFF5775FF577FFF5751
:1059AB0089FF5793FF5569FF5796FF579DFF57A4E4
:1059BB00FF57ABFF57B2FF57B9FF57C0FF57C5FF94
:1059CB005572FF550DFF5510FF5513FF5516FF5719
:1059DB00C0FF57C5FF57CEFF57C5FF557BFF57D8A5
:1059EB00FF57E1FF57EAFF57F3FF57FCFF5805FF3F
:1059FB00580EFF5817FF5820FF5829FF5832FF58F1
:105A0B0037FF583CFF5841FF57C0FF57C5FF58544D
:105A1B00FF5861FF586AFF5873FF57C0FF57C5FF08
:105A2B0057CEFF587CFF588AFF5893FF589CFF585E
:105A3B00A6FF58B3FF58C0FF58CDFF57CEFF57C531
:105A4B00FF57C0FF58DAFF58E3FF58ECFF58F5FF3C
:105A5B0058FEFF5907FF5910FF5919FF5922FF55DF
:105A6B008DFF592DFF5936FF593FFF57C0FF57C5C3
:105A7B0000C1814001C0804101C0804100C1814013
:105A8B0001C0804100C1814000C1814001C0804103
:105A9B0001C0804100C1814000C1814001C08041F3
:105AAB0000C1814001C0804101C0804100C18140E3
:105ABB0001C0804100C1814000C1814001C08041D3
:105ACB0000C1814001C0804101C0804100C18140C3
